{
  "contractName": "Payout",
  "abi": [
    {
      "inputs": [
        {
          "internalType": "address",
          "name": "_roleManagementAddress",
          "type": "address"
        },
        {
          "internalType": "address",
          "name": "_premiumCollectionAddress",
          "type": "address"
        }
      ],
      "stateMutability": "nonpayable",
      "type": "constructor"
    },
    {
      "anonymous": false,
      "inputs": [
        {
          "indexed": true,
          "internalType": "address",
          "name": "admin",
          "type": "address"
        },
        {
          "indexed": false,
          "internalType": "uint256",
          "name": "amount",
          "type": "uint256"
        },
        {
          "indexed": true,
          "internalType": "address",
          "name": "recipient",
          "type": "address"
        }
      ],
      "name": "AdminWithdrawal",
      "type": "event"
    },
    {
      "anonymous": false,
      "inputs": [
        {
          "indexed": false,
          "internalType": "uint256",
          "name": "claimId",
          "type": "uint256"
        },
        {
          "indexed": true,
          "internalType": "address",
          "name": "claimant",
          "type": "address"
        },
        {
          "indexed": false,
          "internalType": "uint256",
          "name": "amount",
          "type": "uint256"
        }
      ],
      "name": "PayoutIssued",
      "type": "event"
    },
    {
      "inputs": [
        {
          "internalType": "uint256",
          "name": "amount",
          "type": "uint256"
        },
        {
          "internalType": "address",
          "name": "recipient",
          "type": "address"
        }
      ],
      "name": "withdrawFundsFromPool",
      "outputs": [],
      "stateMutability": "nonpayable",
      "type": "function"
    },
    {
      "inputs": [
        {
          "internalType": "address",
          "name": "user",
          "type": "address"
        }
      ],
      "name": "checkAdmin",
      "outputs": [
        {
          "internalType": "bool",
          "name": "",
          "type": "bool"
        }
      ],
      "stateMutability": "view",
      "type": "function"
    }
  ],
  "bytecode": "0x608060405234801561001057600080fd5b506040516107273803806107278339818101604052810190610032919061011d565b81600160006101000a81548173ffffffffffffffffffffffffffffffffffffffff021916908373ffffffffffffffffffffffffffffffffffffffff160217905550806000806101000a81548173ffffffffffffffffffffffffffffffffffffffff021916908373ffffffffffffffffffffffffffffffffffffffff160217905550505061015d565b600080fd5b600073ffffffffffffffffffffffffffffffffffffffff82169050919050565b60006100ea826100bf565b9050919050565b6100fa816100df565b811461010557600080fd5b50565b600081519050610117816100f1565b92915050565b60008060408385031215610134576101336100ba565b5b600061014285828601610108565b925050602061015385828601610108565b9150509250929050565b6105bb8061016c6000396000f3fe608060405234801561001057600080fd5b50600436106100365760003560e01c80639026dee81461003b578063a31ac8ea1461006b575b600080fd5b61005560048036038101906100509190610316565b610087565b604051610062919061035e565b60405180910390f35b610085600480360381019061008091906103af565b61012c565b005b6000600160009054906101000a900473ffffffffffffffffffffffffffffffffffffffff1673ffffffffffffffffffffffffffffffffffffffff166324d7806c836040518263ffffffff1660e01b81526004016100e491906103fe565b602060405180830381865afa158015610101573d6000803e3d6000fd5b505050506040513d601f19601f820116820180604052508101906101259190610445565b9050919050565b600160009054906101000a900473ffffffffffffffffffffffffffffffffffffffff1673ffffffffffffffffffffffffffffffffffffffff166324d7806c336040518263ffffffff1660e01b815260040161018791906103fe565b602060405180830381865afa1580156101a4573d6000803e3d6000fd5b505050506040513d601f19601f820116820180604052508101906101c89190610445565b610207576040517f08c379a00000000000000000000000000000000000000000000000000000000081526004016101fe906104cf565b60405180910390fd5b6000821161024a576040517f08c379a00000000000000000000000000000000000000000000000000000000081526004016102419061053b565b60405180910390fd5b8073ffffffffffffffffffffffffffffffffffffffff163373ffffffffffffffffffffffffffffffffffffffff167f5ad9c2cb499b535cadaa4a5dbf8c5f2b4901360da4cb9eab165da605f9044b6d846040516102a7919061056a565b60405180910390a35050565b600080fd5b600073ffffffffffffffffffffffffffffffffffffffff82169050919050565b60006102e3826102b8565b9050919050565b6102f3816102d8565b81146102fe57600080fd5b50565b600081359050610310816102ea565b92915050565b60006020828403121561032c5761032b6102b3565b5b600061033a84828501610301565b91505092915050565b60008115159050919050565b61035881610343565b82525050565b6000602082019050610373600083018461034f565b92915050565b6000819050919050565b61038c81610379565b811461039757600080fd5b50565b6000813590506103a981610383565b92915050565b600080604083850312156103c6576103c56102b3565b5b60006103d48582860161039a565b92505060206103e585828601610301565b9150509250929050565b6103f8816102d8565b82525050565b600060208201905061041360008301846103ef565b92915050565b61042281610343565b811461042d57600080fd5b50565b60008151905061043f81610419565b92915050565b60006020828403121561045b5761045a6102b3565b5b600061046984828501610430565b91505092915050565b600082825260208201905092915050565b7f4163636573732064656e6965643a20596f7520617265206e6f742041646d696e600082015250565b60006104b9602083610472565b91506104c482610483565b602082019050919050565b600060208201905081810360008301526104e8816104ac565b9050919050565b7f416d6f756e74206d7573742062652067726561746572207468616e207a65726f600082015250565b6000610525602083610472565b9150610530826104ef565b602082019050919050565b6000602082019050818103600083015261055481610518565b9050919050565b61056481610379565b82525050565b600060208201905061057f600083018461055b565b9291505056fea2646970667358221220524a6f369bdb5fa6e619a89e21a019eb66799d25614560515589d35bfbc1b31e64736f6c63430008130033",
  "immutableReferences": {},
  "source": "// SPDX-License-Identifier: MIT\r\npragma solidity ^0.8.19;\r\n\r\nimport \"./PremiumCollection.sol\";\r\nimport \"./RoleManagement.sol\";\r\n\r\ncontract Payout {\r\n    PremiumCollection private premiumCollection;\r\n    RoleManagement private roleManagement;\r\n\r\n    event PayoutIssued(uint claimId, address indexed claimant, uint256 amount);\r\n    event AdminWithdrawal(address indexed admin, uint256 amount, address indexed recipient);\r\n\r\n    constructor(address _roleManagementAddress, address _premiumCollectionAddress) {\r\n        roleManagement = RoleManagement(_roleManagementAddress);\r\n        premiumCollection = PremiumCollection(_premiumCollectionAddress);\r\n    }\r\n\r\n    // Modifier for admin access control\r\n    modifier onlyAdmin() {\r\n        require(roleManagement.isAdmin(msg.sender), \"Access denied: You are not Admin\");\r\n        _;\r\n    }\r\n\r\n    /**\r\n     * @dev Allows the admin to withdraw funds from the PremiumCollection pool.\r\n     * @param amount The amount of funds to withdraw from the pool.\r\n     * @param recipient The address where the withdrawn funds will be sent.\r\n     */\r\n    function withdrawFundsFromPool (\r\n        uint256 amount, \r\n        address recipient\r\n    ) external onlyAdmin {\r\n        require(amount > 0, \"Amount must be greater than zero\");\r\n        \r\n        // Call the PremiumCollection contract to withdraw funds\r\n        //premiumCollection.withdrawFunds(amount, recipient);\r\n        \r\n        emit AdminWithdrawal(msg.sender, amount, recipient);\r\n    }\r\n\r\n    /**\r\n     * @dev Helper function to check if a user is an admin.\r\n     * @param user The address to check.\r\n     * @return bool True if the user is an admin, false otherwise.\r\n     */\r\n    function checkAdmin(address user) public view returns (bool) {\r\n        return roleManagement.isAdmin(user);\r\n    }\r\n}\r\n",
  "sourcePath": "C:\\Work\\SIIT\\Blockchain\\DES484_DecentralizedInsurance\\blockchain\\contracts\\Payout.sol",
  "compiler": {
    "name": "solc",
    "version": "0.8.19+commit.7dd6d404.Emscripten.clang"
  },
  "schemaVersion": "3.4.16",
  "updatedAt": "2024-12-15T11:59:26.521Z",
  "devdoc": {
    "kind": "dev",
    "methods": {
      "checkAdmin(address)": {
        "details": "Helper function to check if a user is an admin.",
        "params": {
          "user": "The address to check."
        },
        "returns": {
          "_0": "bool True if the user is an admin, false otherwise."
        }
      },
      "withdrawFundsFromPool(uint256,address)": {
        "details": "Allows the admin to withdraw funds from the PremiumCollection pool.",
        "params": {
          "amount": "The amount of funds to withdraw from the pool.",
          "recipient": "The address where the withdrawn funds will be sent."
        }
      }
    },
    "version": 1
  },
  "userdoc": {
    "kind": "user",
    "methods": {},
    "version": 1
  }
}