{
  "contractName": "PremiumCollection",
  "abi": [
    {
      "inputs": [
        {
          "internalType": "address",
          "name": "_roleManagementAddress",
          "type": "address"
        },
        {
          "internalType": "address",
          "name": "_policyManagementAddress",
          "type": "address"
        }
      ],
      "stateMutability": "nonpayable",
      "type": "constructor"
    },
    {
      "anonymous": false,
      "inputs": [
        {
          "indexed": false,
          "internalType": "uint256",
          "name": "newBalance",
          "type": "uint256"
        }
      ],
      "name": "PoolBalanceUpdated",
      "type": "event"
    },
    {
      "anonymous": false,
      "inputs": [
        {
          "indexed": true,
          "internalType": "address",
          "name": "user",
          "type": "address"
        },
        {
          "indexed": false,
          "internalType": "uint256",
          "name": "policyID",
          "type": "uint256"
        },
        {
          "indexed": false,
          "internalType": "uint256",
          "name": "amount",
          "type": "uint256"
        }
      ],
      "name": "PremiumPaid",
      "type": "event"
    },
    {
      "inputs": [
        {
          "internalType": "uint256",
          "name": "_policyID",
          "type": "uint256"
        },
        {
          "internalType": "uint256",
          "name": "_premiumInUSD",
          "type": "uint256"
        }
      ],
      "name": "selectAndPayPolicy",
      "outputs": [],
      "stateMutability": "payable",
      "type": "function"
    },
    {
      "inputs": [
        {
          "internalType": "uint256",
          "name": "_policyID",
          "type": "uint256"
        }
      ],
      "name": "payPremium",
      "outputs": [],
      "stateMutability": "payable",
      "type": "function"
    },
    {
      "inputs": [],
      "name": "getPoolBalance",
      "outputs": [
        {
          "internalType": "uint256",
          "name": "",
          "type": "uint256"
        }
      ],
      "stateMutability": "view",
      "type": "function"
    },
    {
      "inputs": [
        {
          "internalType": "uint256",
          "name": "amount",
          "type": "uint256"
        }
      ],
      "name": "decreasePoolBalance",
      "outputs": [],
      "stateMutability": "nonpayable",
      "type": "function"
    },
    {
      "inputs": [
        {
          "internalType": "uint256",
          "name": "amount",
          "type": "uint256"
        },
        {
          "internalType": "address",
          "name": "claimer",
          "type": "address"
        }
      ],
      "name": "withdrawFunds",
      "outputs": [],
      "stateMutability": "nonpayable",
      "type": "function"
    }
  ],
  "bytecode": "0x60806040523480156200001157600080fd5b50604051620016403803806200164083398181016040528101906200003791906200012a565b816000806101000a81548173ffffffffffffffffffffffffffffffffffffffff021916908373ffffffffffffffffffffffffffffffffffffffff16021790555080600160006101000a81548173ffffffffffffffffffffffffffffffffffffffff021916908373ffffffffffffffffffffffffffffffffffffffff160217905550505062000171565b600080fd5b600073ffffffffffffffffffffffffffffffffffffffff82169050919050565b6000620000f282620000c5565b9050919050565b6200010481620000e5565b81146200011057600080fd5b50565b6000815190506200012481620000f9565b92915050565b60008060408385031215620001445762000143620000c0565b5b6000620001548582860162000113565b9250506020620001678582860162000113565b9150509250929050565b6114bf80620001816000396000f3fe60806040526004361061004a5760003560e01c80634364b26e1461004f578063744bfe611461006b578063abd70aa214610094578063c2a44949146100bf578063e69d1431146100e8575b600080fd5b61006960048036038101906100649190610b7e565b610104565b005b34801561007757600080fd5b50610092600480360381019061008d9190610c09565b610508565b005b3480156100a057600080fd5b506100a96106c3565b6040516100b69190610c58565b60405180910390f35b3480156100cb57600080fd5b506100e660048036038101906100e19190610b7e565b6106cd565b005b61010260048036038101906100fd9190610c73565b610840565b005b60008054906101000a900473ffffffffffffffffffffffffffffffffffffffff1673ffffffffffffffffffffffffffffffffffffffff16634209fff1336040518263ffffffff1660e01b815260040161015d9190610cc2565b602060405180830381865afa15801561017a573d6000803e3d6000fd5b505050506040513d601f19601f8201168201806040525081019061019e9190610d15565b6101dd576040517f08c379a00000000000000000000000000000000000000000000000000000000081526004016101d490610d9f565b60405180910390fd5b6000806000600160009054906101000a900473ffffffffffffffffffffffffffffffffffffffff1673ffffffffffffffffffffffffffffffffffffffff166390ca93f4336040518263ffffffff1660e01b815260040161023d9190610cc2565b600060405180830381865afa15801561025a573d6000803e3d6000fd5b505050506040513d6000823e3d601f19601f820116820180604052508101906102839190610f2d565b9250925092506000805b84518110156104c057858582815181106102aa576102a9610fd4565b5b6020026020010151036104ad578281815181106102ca576102c9610fd4565b5b6020026020010151421015610314576040517f08c379a000000000000000000000000000000000000000000000000000000000815260040161030b9061104f565b60405180910390fd5b83818151811061032757610326610fd4565b5b6020026020010151341015610371576040517f08c379a0000000000000000000000000000000000000000000000000000000008152600401610368906110bb565b60405180910390fd5b600160009054906101000a900473ffffffffffffffffffffffffffffffffffffffff1673ffffffffffffffffffffffffffffffffffffffff166318cf5bf33388346040518463ffffffff1660e01b81526004016103d0939291906110db565b600060405180830381600087803b1580156103ea57600080fd5b505af11580156103fe573d6000803e3d6000fd5b5050505034600260008282546104149190611141565b925050819055503373ffffffffffffffffffffffffffffffffffffffff167f395bd21029ce552d1941c174d800a5599c4b1b28887cc9b9eea83c5409da93ef8734604051610463929190611175565b60405180910390a27f812a312bfbc57c3813f93d3e1a8515055ed46fc860bd4e2ad39b02198d2a3b7360025460405161049c9190610c58565b60405180910390a1600191506104c0565b80806104b89061119e565b91505061028d565b5080610501576040517f08c379a00000000000000000000000000000000000000000000000000000000081526004016104f890611232565b60405180910390fd5b5050505050565b60008054906101000a900473ffffffffffffffffffffffffffffffffffffffff1673ffffffffffffffffffffffffffffffffffffffff166324d7806c336040518263ffffffff1660e01b81526004016105619190610cc2565b602060405180830381865afa15801561057e573d6000803e3d6000fd5b505050506040513d601f19601f820116820180604052508101906105a29190610d15565b6105e1576040517f08c379a00000000000000000000000000000000000000000000000000000000081526004016105d89061129e565b60405180910390fd5b600254821115610626576040517f08c379a000000000000000000000000000000000000000000000000000000000815260040161061d9061130a565b60405180910390fd5b8160026000828254610638919061132a565b925050819055508073ffffffffffffffffffffffffffffffffffffffff166108fc839081150290604051600060405180830381858888f19350505050158015610685573d6000803e3d6000fd5b507f812a312bfbc57c3813f93d3e1a8515055ed46fc860bd4e2ad39b02198d2a3b736002546040516106b79190610c58565b60405180910390a15050565b6000600254905090565b60008054906101000a900473ffffffffffffffffffffffffffffffffffffffff1673ffffffffffffffffffffffffffffffffffffffff166324d7806c336040518263ffffffff1660e01b81526004016107269190610cc2565b602060405180830381865afa158015610743573d6000803e3d6000fd5b505050506040513d601f19601f820116820180604052508101906107679190610d15565b6107a6576040517f08c379a000000000000000000000000000000000000000000000000000000000815260040161079d9061129e565b60405180910390fd5b8060025410156107eb576040517f08c379a00000000000000000000000000000000000000000000000000000000081526004016107e2906113aa565b60405180910390fd5b80600260008282546107fd919061132a565b925050819055507f812a312bfbc57c3813f93d3e1a8515055ed46fc860bd4e2ad39b02198d2a3b736002546040516108359190610c58565b60405180910390a150565b60008054906101000a900473ffffffffffffffffffffffffffffffffffffffff1673ffffffffffffffffffffffffffffffffffffffff16634209fff1336040518263ffffffff1660e01b81526004016108999190610cc2565b602060405180830381865afa1580156108b6573d6000803e3d6000fd5b505050506040513d601f19601f820116820180604052508101906108da9190610d15565b610919576040517f08c379a000000000000000000000000000000000000000000000000000000000815260040161091090610d9f565b60405180910390fd5b6000600160009054906101000a900473ffffffffffffffffffffffffffffffffffffffff1673ffffffffffffffffffffffffffffffffffffffff1663b496b88e836040518263ffffffff1660e01b81526004016109769190610c58565b602060405180830381865afa158015610993573d6000803e3d6000fd5b505050506040513d601f19601f820116820180604052508101906109b791906113ca565b9050803410156109fc576040517f08c379a00000000000000000000000000000000000000000000000000000000081526004016109f390611469565b60405180910390fd5b600160009054906101000a900473ffffffffffffffffffffffffffffffffffffffff1673ffffffffffffffffffffffffffffffffffffffff166318cf5bf33385856040518463ffffffff1660e01b8152600401610a5b939291906110db565b600060405180830381600087803b158015610a7557600080fd5b505af1158015610a89573d6000803e3d6000fd5b505050503460026000828254610a9f9190611141565b925050819055503373ffffffffffffffffffffffffffffffffffffffff167f395bd21029ce552d1941c174d800a5599c4b1b28887cc9b9eea83c5409da93ef8434604051610aee929190611175565b60405180910390a27f812a312bfbc57c3813f93d3e1a8515055ed46fc860bd4e2ad39b02198d2a3b73600254604051610b279190610c58565b60405180910390a1505050565b6000604051905090565b600080fd5b600080fd5b6000819050919050565b610b5b81610b48565b8114610b6657600080fd5b50565b600081359050610b7881610b52565b92915050565b600060208284031215610b9457610b93610b3e565b5b6000610ba284828501610b69565b91505092915050565b600073ffffffffffffffffffffffffffffffffffffffff82169050919050565b6000610bd682610bab565b9050919050565b610be681610bcb565b8114610bf157600080fd5b50565b600081359050610c0381610bdd565b92915050565b60008060408385031215610c2057610c1f610b3e565b5b6000610c2e85828601610b69565b9250506020610c3f85828601610bf4565b9150509250929050565b610c5281610b48565b82525050565b6000602082019050610c6d6000830184610c49565b92915050565b60008060408385031215610c8a57610c89610b3e565b5b6000610c9885828601610b69565b9250506020610ca985828601610b69565b9150509250929050565b610cbc81610bcb565b82525050565b6000602082019050610cd76000830184610cb3565b92915050565b60008115159050919050565b610cf281610cdd565b8114610cfd57600080fd5b50565b600081519050610d0f81610ce9565b92915050565b600060208284031215610d2b57610d2a610b3e565b5b6000610d3984828501610d00565b91505092915050565b600082825260208201905092915050565b7f4163636573732064656e6965643a20596f7520617265206e6f74205573657200600082015250565b6000610d89601f83610d42565b9150610d9482610d53565b602082019050919050565b60006020820190508181036000830152610db881610d7c565b9050919050565b600080fd5b6000601f19601f8301169050919050565b7f4e487b7100000000000000000000000000000000000000000000000000000000600052604160045260246000fd5b610e0d82610dc4565b810181811067ffffffffffffffff82111715610e2c57610e2b610dd5565b5b80604052505050565b6000610e3f610b34565b9050610e4b8282610e04565b919050565b600067ffffffffffffffff821115610e6b57610e6a610dd5565b5b602082029050602081019050919050565b600080fd5b600081519050610e9081610b52565b92915050565b6000610ea9610ea484610e50565b610e35565b90508083825260208201905060208402830185811115610ecc57610ecb610e7c565b5b835b81811015610ef55780610ee18882610e81565b845260208401935050602081019050610ece565b5050509392505050565b600082601f830112610f1457610f13610dbf565b5b8151610f24848260208601610e96565b91505092915050565b600080600060608486031215610f4657610f45610b3e565b5b600084015167ffffffffffffffff811115610f6457610f63610b43565b5b610f7086828701610eff565b935050602084015167ffffffffffffffff811115610f9157610f90610b43565b5b610f9d86828701610eff565b925050604084015167ffffffffffffffff811115610fbe57610fbd610b43565b5b610fca86828701610eff565b9150509250925092565b7f4e487b7100000000000000000000000000000000000000000000000000000000600052603260045260246000fd5b7f5061796d656e74206e6f74206475650000000000000000000000000000000000600082015250565b6000611039600f83610d42565b915061104482611003565b602082019050919050565b600060208201905081810360008301526110688161102c565b9050919050565b7f496e73756666696369656e74204554482073656e740000000000000000000000600082015250565b60006110a5601583610d42565b91506110b08261106f565b602082019050919050565b600060208201905081810360008301526110d481611098565b9050919050565b60006060820190506110f06000830186610cb3565b6110fd6020830185610c49565b61110a6040830184610c49565b949350505050565b7f4e487b7100000000000000000000000000000000000000000000000000000000600052601160045260246000fd5b600061114c82610b48565b915061115783610b48565b925082820190508082111561116f5761116e611112565b5b92915050565b600060408201905061118a6000830185610c49565b6111976020830184610c49565b9392505050565b60006111a982610b48565b91507fffffffffffffffffffffffffffffffffffffffffffffffffffffffffffffffff82036111db576111da611112565b5b600182019050919050565b7f506f6c696379206e6f7420666f756e6420666f72207573657200000000000000600082015250565b600061121c601983610d42565b9150611227826111e6565b602082019050919050565b6000602082019050818103600083015261124b8161120f565b9050919050565b7f4163636573732064656e6965643a20596f7520617265206e6f742041646d696e600082015250565b6000611288602083610d42565b915061129382611252565b602082019050919050565b600060208201905081810360008301526112b78161127b565b9050919050565b7f496e73756666696369656e742062616c616e636520696e2074686520706f6f6c600082015250565b60006112f4602083610d42565b91506112ff826112be565b602082019050919050565b60006020820190508181036000830152611323816112e7565b9050919050565b600061133582610b48565b915061134083610b48565b925082820390508181111561135857611357611112565b5b92915050565b7f496e73756666696369656e7420706f6f6c2062616c616e636500000000000000600082015250565b6000611394601983610d42565b915061139f8261135e565b602082019050919050565b600060208201905081810360008301526113c381611387565b9050919050565b6000602082840312156113e0576113df610b3e565b5b60006113ee84828501610e81565b91505092915050565b7f496e73756666696369656e74204554482073656e7420666f722074686520707260008201527f656d69756d000000000000000000000000000000000000000000000000000000602082015250565b6000611453602583610d42565b915061145e826113f7565b604082019050919050565b6000602082019050818103600083015261148281611446565b905091905056fea26469706673582212209a53d02647d87a37d55da1256f8595fffd8e607747463702500225361536c2f564736f6c63430008130033",
  "immutableReferences": {},
  "source": "// SPDX-License-Identifier: MIT\r\npragma solidity ^0.8.19;\r\n\r\nimport \"./RoleManagement.sol\";\r\nimport \"./PolicyManagement.sol\";\r\n\r\ncontract PremiumCollection {\r\n\r\n    RoleManagement private roleManagement;\r\n    PolicyManagement private policyManagement;\r\n\r\n    uint256 private poolBalance;\r\n\r\n    event PremiumPaid(address indexed user, uint256 policyID, uint256 amount);\r\n    event PoolBalanceUpdated(uint256 newBalance);\r\n\r\n    constructor(address _roleManagementAddress, address _policyManagementAddress) {\r\n        roleManagement = RoleManagement(_roleManagementAddress);\r\n        policyManagement = PolicyManagement(_policyManagementAddress);\r\n    }\r\n\r\n    modifier onlyUser() {\r\n        require(roleManagement.isUser(msg.sender), \"Access denied: You are not User\");\r\n        _;\r\n    }\r\n\r\n     modifier onlyAdmin() {\r\n        require(roleManagement.isAdmin(msg.sender), \"Access denied: You are not Admin\");\r\n        _;\r\n    }\r\n\r\n    function selectAndPayPolicy(uint256 _policyID, uint256 _premiumInUSD) external payable onlyUser {\r\n        uint256 premiumInWei = policyManagement.getUSDToETH(_premiumInUSD);\r\n        require(msg.value >= premiumInWei, \"Insufficient ETH sent for the premium\");\r\n\r\n        // Call the PolicyManagement to store the user policy\r\n        policyManagement.selectPolicy(msg.sender, _policyID, _premiumInUSD);\r\n        \r\n        poolBalance += msg.value;\r\n\r\n        emit PremiumPaid(msg.sender, _policyID, msg.value);\r\n        emit PoolBalanceUpdated(poolBalance);\r\n    }\r\n\r\n        function payPremium(uint256 _policyID) public payable onlyUser {\r\n        (uint256[] memory policyIDs, uint256[] memory premiums, uint256[] memory dueDates) = \r\n            policyManagement.getUserSelectedPolicies(msg.sender);\r\n\r\n        bool policyFound = false;\r\n\r\n        for (uint256 i = 0; i < policyIDs.length; i++) {\r\n            if (policyIDs[i] == _policyID) {\r\n                require(block.timestamp >= dueDates[i], \"Payment not due\");\r\n                require(msg.value >= premiums[i], \"Insufficient ETH sent\");\r\n\r\n                policyManagement.selectPolicy(msg.sender, _policyID, msg.value);\r\n\r\n                poolBalance += msg.value;\r\n                emit PremiumPaid(msg.sender, _policyID, msg.value);\r\n                emit PoolBalanceUpdated(poolBalance);\r\n\r\n                policyFound = true;\r\n                break;\r\n            }\r\n        }\r\n\r\n        require(policyFound, \"Policy not found for user\");\r\n    }\r\n\r\n    function getPoolBalance() public view returns (uint256) {\r\n        return poolBalance;\r\n    }\r\n\r\n    function decreasePoolBalance(uint256 amount) public onlyAdmin {\r\n        require(poolBalance >= amount, \"Insufficient pool balance\");\r\n        poolBalance -= amount;\r\n        emit PoolBalanceUpdated(poolBalance);\r\n    }\r\n\r\n     function withdrawFunds(uint256 amount, address claimer) public onlyAdmin{\r\n        require(amount <= poolBalance, \"Insufficient balance in the pool\");\r\n        poolBalance -= amount;\r\n        payable(claimer).transfer(amount);\r\n        emit PoolBalanceUpdated(poolBalance);\r\n    }\r\n}\r\n",
  "sourcePath": "C:\\Work\\SIIT\\Blockchain\\DES484_DecentralizedInsurance\\blockchain\\contracts\\PremiumCollection.sol",
  "compiler": {
    "name": "solc",
    "version": "0.8.19+commit.7dd6d404.Emscripten.clang"
  },
  "schemaVersion": "3.4.16",
  "updatedAt": "2024-12-15T11:59:26.539Z",
  "devdoc": {
    "kind": "dev",
    "methods": {},
    "version": 1
  },
  "userdoc": {
    "kind": "user",
    "methods": {},
    "version": 1
  }
}