{
    "contractName": "ClaimManagement",
    "abi": [
        {
            "inputs": [
                {
                    "internalType": "address",
                    "name": "_roleManagementAddress",
                    "type": "address"
                },
                {
                    "internalType": "address",
                    "name": "_policyManagementAddress",
                    "type": "address"
                },
                {
                    "internalType": "address",
                    "name": "_payoutSystemAddress",
                    "type": "address"
                }
            ],
            "stateMutability": "nonpayable",
            "type": "constructor"
        },
        {
            "anonymous": false,
            "inputs": [
                {
                    "indexed": false,
                    "internalType": "uint256",
                    "name": "claimId",
                    "type": "uint256"
                },
                {
                    "indexed": false,
                    "internalType": "address",
                    "name": "claimant",
                    "type": "address"
                },
                {
                    "indexed": false,
                    "internalType": "uint256",
                    "name": "payoutAmountETH",
                    "type": "uint256"
                }
            ],
            "name": "ClaimApproved",
            "type": "event"
        },
        {
            "anonymous": false,
            "inputs": [
                {
                    "indexed": false,
                    "internalType": "uint256",
                    "name": "claimId",
                    "type": "uint256"
                },
                {
                    "indexed": false,
                    "internalType": "string",
                    "name": "reason",
                    "type": "string"
                }
            ],
            "name": "ClaimRejected",
            "type": "event"
        },
        {
            "anonymous": false,
            "inputs": [
                {
                    "indexed": false,
                    "internalType": "uint256",
                    "name": "claimId",
                    "type": "uint256"
                },
                {
                    "indexed": false,
                    "internalType": "enum ClaimManagement.ClaimStatus",
                    "name": "status",
                    "type": "uint8"
                },
                {
                    "indexed": false,
                    "internalType": "uint256",
                    "name": "payoutAmountETH",
                    "type": "uint256"
                }
            ],
            "name": "ClaimReviewed",
            "type": "event"
        },
        {
            "anonymous": false,
            "inputs": [
                {
                    "indexed": false,
                    "internalType": "uint256",
                    "name": "claimId",
                    "type": "uint256"
                },
                {
                    "indexed": true,
                    "internalType": "address",
                    "name": "claimant",
                    "type": "address"
                },
                {
                    "indexed": false,
                    "internalType": "uint256",
                    "name": "policyID",
                    "type": "uint256"
                },
                {
                    "indexed": false,
                    "internalType": "string",
                    "name": "claimType",
                    "type": "string"
                }
            ],
            "name": "ClaimSubmitted",
            "type": "event"
        },
        {
            "inputs": [],
            "name": "claimCount",
            "outputs": [
                {
                    "internalType": "uint256",
                    "name": "",
                    "type": "uint256"
                }
            ],
            "stateMutability": "view",
            "type": "function",
            "constant": true
        },
        {
            "inputs": [
                {
                    "internalType": "uint256",
                    "name": "",
                    "type": "uint256"
                }
            ],
            "name": "claims",
            "outputs": [
                {
                    "internalType": "uint256",
                    "name": "id",
                    "type": "uint256"
                },
                {
                    "internalType": "address",
                    "name": "claimant",
                    "type": "address"
                },
                {
                    "internalType": "uint256",
                    "name": "policyID",
                    "type": "uint256"
                },
                {
                    "internalType": "string",
                    "name": "claimType",
                    "type": "string"
                },
                {
                    "internalType": "string",
                    "name": "incidentDate",
                    "type": "string"
                },
                {
                    "internalType": "string",
                    "name": "details",
                    "type": "string"
                },
                {
                    "internalType": "enum ClaimManagement.ClaimStatus",
                    "name": "status",
                    "type": "uint8"
                },
                {
                    "internalType": "uint256",
                    "name": "timestamp",
                    "type": "uint256"
                },
                {
                    "internalType": "uint256",
                    "name": "payoutAmountETH",
                    "type": "uint256"
                }
            ],
            "stateMutability": "view",
            "type": "function",
            "constant": true
        },
        {
            "inputs": [
                {
                    "internalType": "uint256",
                    "name": "_policyID",
                    "type": "uint256"
                },
                {
                    "internalType": "string",
                    "name": "_claimType",
                    "type": "string"
                },
                {
                    "internalType": "string",
                    "name": "_incidentDate",
                    "type": "string"
                },
                {
                    "internalType": "string",
                    "name": "_details",
                    "type": "string"
                }
            ],
            "name": "submitClaim",
            "outputs": [],
            "stateMutability": "nonpayable",
            "type": "function"
        },
        {
            "inputs": [
                {
                    "internalType": "uint256",
                    "name": "_claimId",
                    "type": "uint256"
                },
                {
                    "internalType": "bool",
                    "name": "_approve",
                    "type": "bool"
                },
                {
                    "internalType": "uint256",
                    "name": "_payoutAmountUSD",
                    "type": "uint256"
                }
            ],
            "name": "reviewClaim",
            "outputs": [],
            "stateMutability": "nonpayable",
            "type": "function"
        },
        {
            "inputs": [
                {
                    "internalType": "uint256",
                    "name": "_claimId",
                    "type": "uint256"
                }
            ],
            "name": "viewClaim",
            "outputs": [
                {
                    "internalType": "address",
                    "name": "claimant",
                    "type": "address"
                },
                {
                    "internalType": "uint256",
                    "name": "policyID",
                    "type": "uint256"
                },
                {
                    "internalType": "string",
                    "name": "claimType",
                    "type": "string"
                },
                {
                    "internalType": "string",
                    "name": "incidentDate",
                    "type": "string"
                },
                {
                    "internalType": "string",
                    "name": "details",
                    "type": "string"
                },
                {
                    "internalType": "enum ClaimManagement.ClaimStatus",
                    "name": "status",
                    "type": "uint8"
                },
                {
                    "internalType": "uint256",
                    "name": "timestamp",
                    "type": "uint256"
                },
                {
                    "internalType": "uint256",
                    "name": "payoutAmountETH",
                    "type": "uint256"
                }
            ],
            "stateMutability": "view",
            "type": "function",
            "constant": true
        },
        {
            "inputs": [],
            "name": "viewUserClaims",
            "outputs": [
                {
                    "components": [
                        {
                            "internalType": "uint256",
                            "name": "id",
                            "type": "uint256"
                        },
                        {
                            "internalType": "address",
                            "name": "claimant",
                            "type": "address"
                        },
                        {
                            "internalType": "uint256",
                            "name": "policyID",
                            "type": "uint256"
                        },
                        {
                            "internalType": "string",
                            "name": "claimType",
                            "type": "string"
                        },
                        {
                            "internalType": "string",
                            "name": "incidentDate",
                            "type": "string"
                        },
                        {
                            "internalType": "string",
                            "name": "details",
                            "type": "string"
                        },
                        {
                            "internalType": "enum ClaimManagement.ClaimStatus",
                            "name": "status",
                            "type": "uint8"
                        },
                        {
                            "internalType": "uint256",
                            "name": "timestamp",
                            "type": "uint256"
                        },
                        {
                            "internalType": "uint256",
                            "name": "payoutAmountETH",
                            "type": "uint256"
                        }
                    ],
                    "internalType": "struct ClaimManagement.Claim[]",
                    "name": "",
                    "type": "tuple[]"
                }
            ],
            "stateMutability": "view",
            "type": "function",
            "constant": true
        },
        {
            "inputs": [],
            "name": "viewAllClaims",
            "outputs": [
                {
                    "components": [
                        {
                            "internalType": "uint256",
                            "name": "id",
                            "type": "uint256"
                        },
                        {
                            "internalType": "address",
                            "name": "claimant",
                            "type": "address"
                        },
                        {
                            "internalType": "uint256",
                            "name": "policyID",
                            "type": "uint256"
                        },
                        {
                            "internalType": "string",
                            "name": "claimType",
                            "type": "string"
                        },
                        {
                            "internalType": "string",
                            "name": "incidentDate",
                            "type": "string"
                        },
                        {
                            "internalType": "string",
                            "name": "details",
                            "type": "string"
                        },
                        {
                            "internalType": "enum ClaimManagement.ClaimStatus",
                            "name": "status",
                            "type": "uint8"
                        },
                        {
                            "internalType": "uint256",
                            "name": "timestamp",
                            "type": "uint256"
                        },
                        {
                            "internalType": "uint256",
                            "name": "payoutAmountETH",
                            "type": "uint256"
                        }
                    ],
                    "internalType": "struct ClaimManagement.Claim[]",
                    "name": "",
                    "type": "tuple[]"
                }
            ],
            "stateMutability": "view",
            "type": "function",
            "constant": true
        }
    ],
    "bytecode": "0x60806040523480156200001157600080fd5b5060405162002c9938038062002c9983398181016040528101906200003791906200016d565b82600260006101000a81548173ffffffffffffffffffffffffffffffffffffffff021916908373ffffffffffffffffffffffffffffffffffffffff16021790555081600360006101000a81548173ffffffffffffffffffffffffffffffffffffffff021916908373ffffffffffffffffffffffffffffffffffffffff16021790555080600460006101000a81548173ffffffffffffffffffffffffffffffffffffffff021916908373ffffffffffffffffffffffffffffffffffffffff160217905550505050620001c9565b600080fd5b600073ffffffffffffffffffffffffffffffffffffffff82169050919050565b6000620001358262000108565b9050919050565b620001478162000128565b81146200015357600080fd5b50565b60008151905062000167816200013c565b92915050565b60008060006060848603121562000189576200018862000103565b5b6000620001998682870162000156565b9350506020620001ac8682870162000156565b9250506040620001bf8682870162000156565b9150509250925092565b612ac080620001d96000396000f3fe608060405234801561001057600080fd5b506004361061007d5760003560e01c80638da4d3c91161005b5780638da4d3c9146100f5578063a888c2cd14610113578063d86780c51461014b578063efbd8e5e146101675761007d565b80633511e4db14610082578063522a7642146100a057806366406d5e146100be575b600080fd5b61008a610183565b6040516100979190611be4565b60405180910390f35b6100a86105cd565b6040516100b59190611be4565b60405180910390f35b6100d860048036038101906100d39190611c46565b6109e6565b6040516100ec989796959493929190611cea565b60405180910390f35b6100fd610cc8565b60405161010a9190611d7d565b60405180910390f35b61012d60048036038101906101289190611c46565b610cce565b60405161014299989796959493929190611d98565b60405180910390f35b61016560048036038101906101609190611e72565b610ee1565b005b610181600480360381019061017c9190611ffa565b6112c2565b005b606060006001549050600080600190505b828111610225573373ffffffffffffffffffffffffffffffffffffffff1660008083815260200190815260200160002060010160009054906101000a900473ffffffffffffffffffffffffffffffffffffffff1673ffffffffffffffffffffffffffffffffffffffff160361021257818061020e906120e4565b9250505b808061021d906120e4565b915050610194565b5060008167ffffffffffffffff81111561024257610241611ecf565b5b60405190808252806020026020018201604052801561027b57816020015b61026861187a565b8152602001906001900390816102605790505b509050600080600190505b8481116105c2573373ffffffffffffffffffffffffffffffffffffffff1660008083815260200190815260200160002060010160009054906101000a900473ffffffffffffffffffffffffffffffffffffffff1673ffffffffffffffffffffffffffffffffffffffff16036105af5760008082815260200190815260200160002060405180610120016040529081600082015481526020016001820160009054906101000a900473ffffffffffffffffffffffffffffffffffffffff1673ffffffffffffffffffffffffffffffffffffffff1673ffffffffffffffffffffffffffffffffffffffff1681526020016002820154815260200160038201805461038d9061215b565b80601f01602080910402602001604051908101604052809291908181526020018280546103b99061215b565b80156104065780601f106103db57610100808354040283529160200191610406565b820191906000526020600020905b8154815290600101906020018083116103e957829003601f168201915b5050505050815260200160048201805461041f9061215b565b80601f016020809104026020016040519081016040528092919081815260200182805461044b9061215b565b80156104985780601f1061046d57610100808354040283529160200191610498565b820191906000526020600020905b81548152906001019060200180831161047b57829003601f168201915b505050505081526020016005820180546104b19061215b565b80601f01602080910402602001604051908101604052809291908181526020018280546104dd9061215b565b801561052a5780601f106104ff5761010080835404028352916020019161052a565b820191906000526020600020905b81548152906001019060200180831161050d57829003601f168201915b505050505081526020016006820160009054906101000a900460ff16600281111561055857610557611a04565b5b600281111561056a57610569611a04565b5b8152602001600782015481526020016008820154815250508383815181106105955761059461218c565b5b602002602001018190525081806105ab906120e4565b9250505b80806105ba906120e4565b915050610286565b508194505050505090565b6060600260009054906101000a900473ffffffffffffffffffffffffffffffffffffffff1673ffffffffffffffffffffffffffffffffffffffff166324d7806c336040518263ffffffff1660e01b815260040161062a91906121bb565b602060405180830381865afa158015610647573d6000803e3d6000fd5b505050506040513d601f19601f8201168201806040525081019061066b91906121eb565b6106aa576040517f08c379a00000000000000000000000000000000000000000000000000000000081526004016106a190612264565b60405180910390fd5b600060015467ffffffffffffffff8111156106c8576106c7611ecf565b5b60405190808252806020026020018201604052801561070157816020015b6106ee61187a565b8152602001906001900390816106e65790505b5090506000600190505b60015481116109de5760008082815260200190815260200160002060405180610120016040529081600082015481526020016001820160009054906101000a900473ffffffffffffffffffffffffffffffffffffffff1673ffffffffffffffffffffffffffffffffffffffff1673ffffffffffffffffffffffffffffffffffffffff168152602001600282015481526020016003820180546107ac9061215b565b80601f01602080910402602001604051908101604052809291908181526020018280546107d89061215b565b80156108255780601f106107fa57610100808354040283529160200191610825565b820191906000526020600020905b81548152906001019060200180831161080857829003601f168201915b5050505050815260200160048201805461083e9061215b565b80601f016020809104026020016040519081016040528092919081815260200182805461086a9061215b565b80156108b75780601f1061088c576101008083540402835291602001916108b7565b820191906000526020600020905b81548152906001019060200180831161089a57829003601f168201915b505050505081526020016005820180546108d09061215b565b80601f01602080910402602001604051908101604052809291908181526020018280546108fc9061215b565b80156109495780601f1061091e57610100808354040283529160200191610949565b820191906000526020600020905b81548152906001019060200180831161092c57829003601f168201915b505050505081526020016006820160009054906101000a900460ff16600281111561097757610976611a04565b5b600281111561098957610988611a04565b5b815260200160078201548152602001600882015481525050826001836109af9190612284565b815181106109c0576109bf61218c565b5b602002602001018190525080806109d6906120e4565b91505061070b565b508091505090565b60008060608060606000806000806000808b815260200190815260200160002060405180610120016040529081600082015481526020016001820160009054906101000a900473ffffffffffffffffffffffffffffffffffffffff1673ffffffffffffffffffffffffffffffffffffffff1673ffffffffffffffffffffffffffffffffffffffff16815260200160028201548152602001600382018054610a8c9061215b565b80601f0160208091040260200160405190810160405280929190818152602001828054610ab89061215b565b8015610b055780601f10610ada57610100808354040283529160200191610b05565b820191906000526020600020905b815481529060010190602001808311610ae857829003601f168201915b50505050508152602001600482018054610b1e9061215b565b80601f0160208091040260200160405190810160405280929190818152602001828054610b4a9061215b565b8015610b975780601f10610b6c57610100808354040283529160200191610b97565b820191906000526020600020905b815481529060010190602001808311610b7a57829003601f168201915b50505050508152602001600582018054610bb09061215b565b80601f0160208091040260200160405190810160405280929190818152602001828054610bdc9061215b565b8015610c295780601f10610bfe57610100808354040283529160200191610c29565b820191906000526020600020905b815481529060010190602001808311610c0c57829003601f168201915b505050505081526020016006820160009054906101000a900460ff166002811115610c5757610c56611a04565b5b6002811115610c6957610c68611a04565b5b815260200160078201548152602001600882015481525050905080602001518160400151826060015183608001518460a001518560c001518660e001518761010001519850985098509850985098509850985050919395975091939597565b60015481565b60006020528060005260406000206000915090508060000154908060010160009054906101000a900473ffffffffffffffffffffffffffffffffffffffff1690806002015490806003018054610d239061215b565b80601f0160208091040260200160405190810160405280929190818152602001828054610d4f9061215b565b8015610d9c5780601f10610d7157610100808354040283529160200191610d9c565b820191906000526020600020905b815481529060010190602001808311610d7f57829003601f168201915b505050505090806004018054610db19061215b565b80601f0160208091040260200160405190810160405280929190818152602001828054610ddd9061215b565b8015610e2a5780601f10610dff57610100808354040283529160200191610e2a565b820191906000526020600020905b815481529060010190602001808311610e0d57829003601f168201915b505050505090806005018054610e3f9061215b565b80601f0160208091040260200160405190810160405280929190818152602001828054610e6b9061215b565b8015610eb85780601f10610e8d57610100808354040283529160200191610eb8565b820191906000526020600020905b815481529060010190602001808311610e9b57829003601f168201915b5050505050908060060160009054906101000a900460ff16908060070154908060080154905089565b600260009054906101000a900473ffffffffffffffffffffffffffffffffffffffff1673ffffffffffffffffffffffffffffffffffffffff166324d7806c336040518263ffffffff1660e01b8152600401610f3c91906121bb565b602060405180830381865afa158015610f59573d6000803e3d6000fd5b505050506040513d601f19601f82011682018060405250810190610f7d91906121eb565b610fbc576040517f08c379a0000000000000000000000000000000000000000000000000000000008152600401610fb390612264565b60405180910390fd5b6000806000858152602001908152602001600020905060006002811115610fe657610fe5611a04565b5b8160060160009054906101000a900460ff16600281111561100a57611009611a04565b5b1461104a576040517f08c379a000000000000000000000000000000000000000000000000000000000815260040161104190612304565b60405180910390fd5b821561123e5760018160060160006101000a81548160ff0219169083600281111561107857611077611a04565b5b02179055506000600360009054906101000a900473ffffffffffffffffffffffffffffffffffffffff1673ffffffffffffffffffffffffffffffffffffffff1663b496b88e846040518263ffffffff1660e01b81526004016110da9190611d7d565b602060405180830381865afa1580156110f7573d6000803e3d6000fd5b505050506040513d601f19601f8201168201806040525081019061111b9190612339565b90508082600801819055507f0b582d60859bb6c5e17bb049bc83044c0c8dab7d0a026b4e3a4a2966d8926de5858360010160009054906101000a900473ffffffffffffffffffffffffffffffffffffffff168360405161117d93929190612366565b60405180910390a1600460009054906101000a900473ffffffffffffffffffffffffffffffffffffffff1673ffffffffffffffffffffffffffffffffffffffff1663a31ac8ea828460010160009054906101000a900473ffffffffffffffffffffffffffffffffffffffff166040518363ffffffff1660e01b815260040161120692919061239d565b600060405180830381600087803b15801561122057600080fd5b505af1158015611234573d6000803e3d6000fd5b505050505061126c565b60028160060160006101000a81548160ff0219169083600281111561126657611265611a04565b5b02179055505b7fd6c0d289161fc486c7fa75df6358ab9a7d2cabc7ddfd0f6031e31371839ae45e848260060160009054906101000a900460ff1683600801546040516112b4939291906123c6565b60405180910390a150505050565b600260009054906101000a900473ffffffffffffffffffffffffffffffffffffffff1673ffffffffffffffffffffffffffffffffffffffff16634209fff1336040518263ffffffff1660e01b815260040161131d91906121bb565b602060405180830381865afa15801561133a573d6000803e3d6000fd5b505050506040513d601f19601f8201168201806040525081019061135e91906121eb565b61139d576040517f08c379a00000000000000000000000000000000000000000000000000000000081526004016113949061246f565b60405180910390fd5b6000600360009054906101000a900473ffffffffffffffffffffffffffffffffffffffff1673ffffffffffffffffffffffffffffffffffffffff166397e68911866040518263ffffffff1660e01b81526004016113fa9190611d7d565b600060405180830381865afa158015611417573d6000803e3d6000fd5b505050506040513d6000823e3d601f19601f8201168201806040525081019061144091906125e5565b96505050505050506000805b82518110156114de57856040516020016114669190612717565b6040516020818303038152906040528051906020012083828151811061148f5761148e61218c565b5b60200260200101516040516020016114a79190612717565b60405160208183030381529060405280519060200120036114cb57600191506114de565b80806114d6906120e4565b91505061144c565b50806116a057600160008154809291906114f7906120e4565b919050555060405180610120016040528060015481526020013373ffffffffffffffffffffffffffffffffffffffff16815260200187815260200186815260200185815260200184815260200160028081111561155757611556611a04565b5b8152602001428152602001600081525060008060015481526020019081526020016000206000820151816000015560208201518160010160006101000a81548173ffffffffffffffffffffffffffffffffffffffff021916908373ffffffffffffffffffffffffffffffffffffffff1602179055506040820151816002015560608201518160030190816115eb91906128da565b50608082015181600401908161160191906128da565b5060a082015181600501908161161791906128da565b5060c08201518160060160006101000a81548160ff0219169083600281111561164357611642611a04565b5b021790555060e0820151816007015561010082015181600801559050507f43cc3d080e025c67c26d62b18bd442511dc9c76c8aa3f48cc0e8f456173e61f16001546040516116919190612a1e565b60405180910390a15050611874565b600160008154809291906116b3906120e4565b919050555060405180610120016040528060015481526020013373ffffffffffffffffffffffffffffffffffffffff1681526020018781526020018681526020018581526020018481526020016000600281111561171457611713611a04565b5b8152602001428152602001600081525060008060015481526020019081526020016000206000820151816000015560208201518160010160006101000a81548173ffffffffffffffffffffffffffffffffffffffff021916908373ffffffffffffffffffffffffffffffffffffffff1602179055506040820151816002015560608201518160030190816117a891906128da565b5060808201518160040190816117be91906128da565b5060a08201518160050190816117d491906128da565b5060c08201518160060160006101000a81548160ff02191690836002811115611800576117ff611a04565b5b021790555060e0820151816007015561010082015181600801559050503373ffffffffffffffffffffffffffffffffffffffff167f95081ad7e72ba2e9a9457b1b8f0b632d020ea774fd5da576c1202d5990418294600154888860405161186993929190612a4c565b60405180910390a250505b50505050565b60405180610120016040528060008152602001600073ffffffffffffffffffffffffffffffffffffffff16815260200160008152602001606081526020016060815260200160608152602001600060028111156118da576118d9611a04565b5b815260200160008152602001600081525090565b600081519050919050565b600082825260208201905092915050565b6000819050602082019050919050565b6000819050919050565b61192d8161191a565b82525050565b600073ffffffffffffffffffffffffffffffffffffffff82169050919050565b600061195e82611933565b9050919050565b61196e81611953565b82525050565b600081519050919050565b600082825260208201905092915050565b60005b838110156119ae578082015181840152602081019050611993565b60008484015250505050565b6000601f19601f8301169050919050565b60006119d682611974565b6119e0818561197f565b93506119f0818560208601611990565b6119f9816119ba565b840191505092915050565b7f4e487b7100000000000000000000000000000000000000000000000000000000600052602160045260246000fd5b60038110611a4457611a43611a04565b5b50565b6000819050611a5582611a33565b919050565b6000611a6582611a47565b9050919050565b611a7581611a5a565b82525050565b600061012083016000830151611a946000860182611924565b506020830151611aa76020860182611965565b506040830151611aba6040860182611924565b5060608301518482036060860152611ad282826119cb565b91505060808301518482036080860152611aec82826119cb565b91505060a083015184820360a0860152611b0682826119cb565b91505060c0830151611b1b60c0860182611a6c565b5060e0830151611b2e60e0860182611924565b50610100830151611b43610100860182611924565b508091505092915050565b6000611b5a8383611a7b565b905092915050565b6000602082019050919050565b6000611b7a826118ee565b611b8481856118f9565b935083602082028501611b968561190a565b8060005b85811015611bd25784840389528151611bb38582611b4e565b9450611bbe83611b62565b925060208a01995050600181019050611b9a565b50829750879550505050505092915050565b60006020820190508181036000830152611bfe8184611b6f565b905092915050565b6000604051905090565b600080fd5b600080fd5b611c238161191a565b8114611c2e57600080fd5b50565b600081359050611c4081611c1a565b92915050565b600060208284031215611c5c57611c5b611c10565b5b6000611c6a84828501611c31565b91505092915050565b611c7c81611953565b82525050565b611c8b8161191a565b82525050565b600082825260208201905092915050565b6000611cad82611974565b611cb78185611c91565b9350611cc7818560208601611990565b611cd0816119ba565b840191505092915050565b611ce481611a5a565b82525050565b600061010082019050611d00600083018b611c73565b611d0d602083018a611c82565b8181036040830152611d1f8189611ca2565b90508181036060830152611d338188611ca2565b90508181036080830152611d478187611ca2565b9050611d5660a0830186611cdb565b611d6360c0830185611c82565b611d7060e0830184611c82565b9998505050505050505050565b6000602082019050611d926000830184611c82565b92915050565b600061012082019050611dae600083018c611c82565b611dbb602083018b611c73565b611dc8604083018a611c82565b8181036060830152611dda8189611ca2565b90508181036080830152611dee8188611ca2565b905081810360a0830152611e028187611ca2565b9050611e1160c0830186611cdb565b611e1e60e0830185611c82565b611e2c610100830184611c82565b9a9950505050505050505050565b60008115159050919050565b611e4f81611e3a565b8114611e5a57600080fd5b50565b600081359050611e6c81611e46565b92915050565b600080600060608486031215611e8b57611e8a611c10565b5b6000611e9986828701611c31565b9350506020611eaa86828701611e5d565b9250506040611ebb86828701611c31565b9150509250925092565b600080fd5b600080fd5b7f4e487b7100000000000000000000000000000000000000000000000000000000600052604160045260246000fd5b611f07826119ba565b810181811067ffffffffffffffff82111715611f2657611f25611ecf565b5b80604052505050565b6000611f39611c06565b9050611f458282611efe565b919050565b600067ffffffffffffffff821115611f6557611f64611ecf565b5b611f6e826119ba565b9050602081019050919050565b82818337600083830152505050565b6000611f9d611f9884611f4a565b611f2f565b905082815260208101848484011115611fb957611fb8611eca565b5b611fc4848285611f7b565b509392505050565b600082601f830112611fe157611fe0611ec5565b5b8135611ff1848260208601611f8a565b91505092915050565b6000806000806080858703121561201457612013611c10565b5b600061202287828801611c31565b945050602085013567ffffffffffffffff81111561204357612042611c15565b5b61204f87828801611fcc565b935050604085013567ffffffffffffffff8111156120705761206f611c15565b5b61207c87828801611fcc565b925050606085013567ffffffffffffffff81111561209d5761209c611c15565b5b6120a987828801611fcc565b91505092959194509250565b7f4e487b7100000000000000000000000000000000000000000000000000000000600052601160045260246000fd5b60006120ef8261191a565b91507fffffffffffffffffffffffffffffffffffffffffffffffffffffffffffffffff8203612121576121206120b5565b5b600182019050919050565b7f4e487b7100000000000000000000000000000000000000000000000000000000600052602260045260246000fd5b6000600282049050600182168061217357607f821691505b6020821081036121865761218561212c565b5b50919050565b7f4e487b7100000000000000000000000000000000000000000000000000000000600052603260045260246000fd5b60006020820190506121d06000830184611c73565b92915050565b6000815190506121e581611e46565b92915050565b60006020828403121561220157612200611c10565b5b600061220f848285016121d6565b91505092915050565b7f4163636573732064656e6965643a20596f7520617265206e6f742041646d696e600082015250565b600061224e602083611c91565b915061225982612218565b602082019050919050565b6000602082019050818103600083015261227d81612241565b9050919050565b600061228f8261191a565b915061229a8361191a565b92508282039050818111156122b2576122b16120b5565b5b92915050565b7f436c61696d206973206e6f742070656e64696e67000000000000000000000000600082015250565b60006122ee601483611c91565b91506122f9826122b8565b602082019050919050565b6000602082019050818103600083015261231d816122e1565b9050919050565b60008151905061233381611c1a565b92915050565b60006020828403121561234f5761234e611c10565b5b600061235d84828501612324565b91505092915050565b600060608201905061237b6000830186611c82565b6123886020830185611c73565b6123956040830184611c82565b949350505050565b60006040820190506123b26000830185611c82565b6123bf6020830184611c73565b9392505050565b60006060820190506123db6000830186611c82565b6123e86020830185611cdb565b6123f56040830184611c82565b949350505050565b7f4163636573732064656e6965643a20596f7520617265206e6f74206120506f6c60008201527f69637920486f6c64657200000000000000000000000000000000000000000000602082015250565b6000612459602a83611c91565b9150612464826123fd565b604082019050919050565b600060208201905081810360008301526124888161244c565b9050919050565b60006124a261249d84611f4a565b611f2f565b9050828152602081018484840111156124be576124bd611eca565b5b6124c9848285611990565b509392505050565b600082601f8301126124e6576124e5611ec5565b5b81516124f684826020860161248f565b91505092915050565b600067ffffffffffffffff82111561251a57612519611ecf565b5b602082029050602081019050919050565b600080fd5b600061254361253e846124ff565b611f2f565b905080838252602082019050602084028301858111156125665761256561252b565b5b835b818110156125ad57805167ffffffffffffffff81111561258b5761258a611ec5565b5b80860161259889826124d1565b85526020850194505050602081019050612568565b5050509392505050565b600082601f8301126125cc576125cb611ec5565b5b81516125dc848260208601612530565b91505092915050565b600080600080600080600060e0888a03121561260457612603611c10565b5b60006126128a828b01612324565b975050602088015167ffffffffffffffff81111561263357612632611c15565b5b61263f8a828b016124d1565b965050604088015167ffffffffffffffff8111156126605761265f611c15565b5b61266c8a828b016124d1565b955050606061267d8a828b01612324565b945050608061268e8a828b01612324565b93505060a061269f8a828b01612324565b92505060c088015167ffffffffffffffff8111156126c0576126bf611c15565b5b6126cc8a828b016125b7565b91505092959891949750929550565b600081905092915050565b60006126f182611974565b6126fb81856126db565b935061270b818560208601611990565b80840191505092915050565b600061272382846126e6565b915081905092915050565b60008190508160005260206000209050919050565b60006020601f8301049050919050565b600082821b905092915050565b6000600883026127907fffffffffffffffffffffffffffffffffffffffffffffffffffffffffffffffff82612753565b61279a8683612753565b95508019841693508086168417925050509392505050565b6000819050919050565b60006127d76127d26127cd8461191a565b6127b2565b61191a565b9050919050565b6000819050919050565b6127f1836127bc565b6128056127fd826127de565b848454612760565b825550505050565b600090565b61281a61280d565b6128258184846127e8565b505050565b5b818110156128495761283e600082612812565b60018101905061282b565b5050565b601f82111561288e5761285f8161272e565b61286884612743565b81016020851015612877578190505b61288b61288385612743565b83018261282a565b50505b505050565b600082821c905092915050565b60006128b160001984600802612893565b1980831691505092915050565b60006128ca83836128a0565b9150826002028217905092915050565b6128e382611974565b67ffffffffffffffff8111156128fc576128fb611ecf565b5b612906825461215b565b61291182828561284d565b600060209050601f8311600181146129445760008415612932578287015190505b61293c85826128be565b8655506129a4565b601f1984166129528661272e565b60005b8281101561297a57848901518255600182019150602085019450602081019050612955565b868310156129975784890151612993601f8916826128a0565b8355505b6001600288020188555050505b505050505050565b7f436c61696d2074797065206e6f7420636f766572656420696e2074686520706f60008201527f6c69637900000000000000000000000000000000000000000000000000000000602082015250565b6000612a08602483611c91565b9150612a13826129ac565b604082019050919050565b6000604082019050612a336000830184611c82565b8181036020830152612a44816129fb565b905092915050565b6000606082019050612a616000830186611c82565b612a6e6020830185611c82565b8181036040830152612a808184611ca2565b905094935050505056fea264697066735822122037d217064329aa4b213c86098eada828711abffadd52665ab188b486558b21ff64736f6c63430008130033",
    "immutableReferences": {},
    "source": "// SPDX-License-Identifier: MIT\r\npragma solidity ^0.8.19;\r\n\r\nimport \"./RoleManagement.sol\";\r\nimport \"./PolicyManagement.sol\";\r\nimport \"./Payout.sol\";\r\n\r\ncontract ClaimManagement {\r\n    enum ClaimStatus { Pending, Approved, Rejected }\r\n\r\n    struct Claim {\r\n        uint id;\r\n        address claimant;\r\n        uint policyID;\r\n        string claimType; // Type of claim (e.g., Theft, Accident, Fire, etc.)\r\n        string incidentDate;\r\n        string details;\r\n        ClaimStatus status;\r\n        uint timestamp;\r\n        uint256 payoutAmountETH; // Store payout amount in ETH\r\n    }\r\n\r\n    mapping(uint => Claim) public claims;\r\n    uint public claimCount;\r\n\r\n    RoleManagement private roleManagement;\r\n    PolicyManagement private policyManagement;\r\n    Payout private payout;\r\n\r\n    event ClaimSubmitted(uint claimId, address indexed claimant, uint policyID, string claimType);\r\n    event ClaimReviewed(uint claimId, ClaimStatus status, uint256 payoutAmountETH);\r\n    event ClaimRejected(uint claimId, string reason);\r\n    event ClaimApproved(uint claimId, address claimant, uint256 payoutAmountETH);\r\n\r\n    constructor(\r\n        address _roleManagementAddress, \r\n        address _policyManagementAddress, \r\n        address _payoutSystemAddress\r\n    ) {\r\n        roleManagement = RoleManagement(_roleManagementAddress);\r\n        policyManagement = PolicyManagement(_policyManagementAddress);\r\n        payout = Payout(_payoutSystemAddress);\r\n    }\r\n\r\n    // Modifier for admin access control\r\n    modifier onlyAdmin() {\r\n        require(roleManagement.isAdmin(msg.sender), \"Access denied: You are not Admin\");\r\n        _;\r\n    }\r\n\r\n   // Modifier for user access control\r\n    modifier onlyUser() {\r\n        require(roleManagement.isUser(msg.sender), \"Access denied: You are not a Policy Holder\");\r\n        _;\r\n    }\r\n\r\n    /**\r\n     * @dev Submit a claim. User must provide the claim type (e.g., \"Theft\", \"Accident\") and it is checked against the policy coverage.\r\n     */\r\n    function submitClaim(\r\n        uint _policyID,\r\n        string memory _claimType,\r\n        string memory _incidentDate,\r\n        string memory _details\r\n    ) public onlyUser {\r\n        (, , , , , , string[] memory cover) = policyManagement.viewPolicy(_policyID);\r\n\r\n        // Check if the claim type is included in the policy's cover types\r\n        bool isTypeCovered = false;\r\n        for (uint i = 0; i < cover.length; i++) {\r\n            if (keccak256(abi.encodePacked(cover[i])) == keccak256(abi.encodePacked(_claimType))) {\r\n                isTypeCovered = true;\r\n                break;\r\n            }\r\n        }\r\n\r\n        if (!isTypeCovered) {\r\n            claimCount++;\r\n            claims[claimCount] = Claim({\r\n                id: claimCount,\r\n                claimant: msg.sender,\r\n                policyID: _policyID,\r\n                claimType: _claimType,\r\n                incidentDate: _incidentDate,\r\n                details: _details,\r\n                status: ClaimStatus.Rejected,\r\n                timestamp: block.timestamp,\r\n                payoutAmountETH: 0\r\n            });\r\n\r\n            emit ClaimRejected(claimCount, \"Claim type not covered in the policy\");\r\n            return;\r\n        }\r\n\r\n        claimCount++;\r\n        claims[claimCount] = Claim({\r\n            id: claimCount,\r\n            claimant: msg.sender,\r\n            policyID: _policyID,\r\n            claimType: _claimType,\r\n            incidentDate: _incidentDate,\r\n            details: _details,\r\n            status: ClaimStatus.Pending,\r\n            timestamp: block.timestamp,\r\n            payoutAmountETH: 0\r\n        });\r\n\r\n        emit ClaimSubmitted(claimCount, msg.sender, _policyID, _claimType);\r\n    }\r\n\r\n    /*\r\n     * @dev Admin reviews a claim and either approves or rejects it.\r\n     * @param _claimId The ID of the claim to review.\r\n     * @param _approve True to approve the claim, false to reject it.\r\n     * @param _payoutAmountUSD The payout amount in USD (this will be converted to ETH).\r\n     */\r\n    function reviewClaim(uint _claimId, bool _approve, uint256 _payoutAmountUSD) public onlyAdmin{\r\n        Claim storage claim = claims[_claimId];\r\n        require(claim.status == ClaimStatus.Pending, \"Claim is not pending\");\r\n\r\n        if (_approve) {\r\n            claim.status = ClaimStatus.Approved;\r\n\r\n            // Convert USD to ETH\r\n            uint256 payoutAmountETH = policyManagement.getUSDToETH(_payoutAmountUSD);\r\n            claim.payoutAmountETH = payoutAmountETH;\r\n\r\n            emit ClaimApproved(_claimId, claim.claimant, payoutAmountETH);\r\n            payout.withdrawFundsFromPool(payoutAmountETH, claim.claimant);\r\n        } else {\r\n            claim.status = ClaimStatus.Rejected;\r\n        }\r\n\r\n        emit ClaimReviewed(_claimId, claim.status, claim.payoutAmountETH);\r\n    }\r\n\r\n    /*\r\n     * @dev View details of a specific claim by claim ID.\r\n     */\r\n    function viewClaim(uint _claimId) public view returns (\r\n        address claimant,\r\n        uint policyID,\r\n        string memory claimType,\r\n        string memory incidentDate,\r\n        string memory details,\r\n        ClaimStatus status,\r\n        uint timestamp,\r\n        uint256 payoutAmountETH\r\n    ) {\r\n        Claim memory claim = claims[_claimId];\r\n        return (\r\n            claim.claimant,\r\n            claim.policyID,\r\n            claim.claimType,\r\n            claim.incidentDate,\r\n            claim.details,\r\n            claim.status,\r\n            claim.timestamp,\r\n            claim.payoutAmountETH\r\n        );\r\n    }\r\n\r\n    /*\r\n     * @dev View all claims submitted by the calling user.\r\n     */\r\n    function viewUserClaims() public view returns (Claim[] memory) {\r\n        uint totalClaims = claimCount;\r\n        uint userClaimCount = 0;\r\n\r\n        for (uint i = 1; i <= totalClaims; i++) {\r\n            if (claims[i].claimant == msg.sender) {\r\n                userClaimCount++;\r\n            }\r\n        }\r\n\r\n        Claim[] memory userClaims = new Claim[](userClaimCount);\r\n        uint index = 0;\r\n        for (uint i = 1; i <= totalClaims; i++) {\r\n            if (claims[i].claimant == msg.sender) {\r\n                userClaims[index] = claims[i];\r\n                index++;\r\n            }\r\n        }\r\n\r\n        return userClaims;\r\n    }\r\n\r\n    /*\r\n     * @dev Admin can view all claims.\r\n     */\r\n    function viewAllClaims() public view onlyAdmin returns (Claim[] memory) {\r\n        Claim[] memory allClaims = new Claim[](claimCount);\r\n        for (uint i = 1; i <= claimCount; i++) {\r\n            allClaims[i - 1] = claims[i];\r\n        }\r\n        return allClaims;\r\n    }\r\n}\r\n",
    "sourcePath": "C:\\Work\\SIIT\\Blockchain\\DES484_DecentralizedInsurance\\blockchain\\contracts\\ClaimManagement.sol",
    "compiler": {
        "name": "solc",
        "version": "0.8.19+commit.7dd6d404.Emscripten.clang"
    },
    "schemaVersion": "3.4.16",
    "updatedAt": "2024-12-15T10:50:55.939Z",
    "networkType": "ethereum",
    "devdoc": {
        "kind": "dev",
        "methods": {
            "submitClaim(uint256,string,string,string)": {
                "details": "Submit a claim. User must provide the claim type (e.g., \"Theft\", \"Accident\") and it is checked against the policy coverage."
            }
        },
        "version": 1
    },
    "userdoc": {
        "kind": "user",
        "methods": {},
        "version": 1
    }
}