{
  "contractName": "PolicyManagement",
  "abi": [
    {
      "inputs": [
        {
          "internalType": "address",
          "name": "_roleManagementAddress",
          "type": "address"
        },
        {
          "internalType": "int256",
          "name": "_initialPrice",
          "type": "int256"
        }
      ],
      "stateMutability": "nonpayable",
      "type": "constructor"
    },
    {
      "anonymous": false,
      "inputs": [
        {
          "indexed": false,
          "internalType": "uint256",
          "name": "policyID",
          "type": "uint256"
        },
        {
          "indexed": true,
          "internalType": "address",
          "name": "admin",
          "type": "address"
        },
        {
          "indexed": false,
          "internalType": "string",
          "name": "insurancePlan",
          "type": "string"
        },
        {
          "indexed": false,
          "internalType": "string",
          "name": "basePremiumRate",
          "type": "string"
        },
        {
          "indexed": false,
          "internalType": "uint256",
          "name": "deductible",
          "type": "uint256"
        },
        {
          "indexed": false,
          "internalType": "uint256",
          "name": "insuranceCoverage",
          "type": "uint256"
        },
        {
          "indexed": false,
          "internalType": "uint256",
          "name": "thirdPartyLiability",
          "type": "uint256"
        },
        {
          "indexed": false,
          "internalType": "string[]",
          "name": "cover",
          "type": "string[]"
        }
      ],
      "name": "PolicyCreated",
      "type": "event"
    },
    {
      "anonymous": false,
      "inputs": [
        {
          "indexed": true,
          "internalType": "address",
          "name": "user",
          "type": "address"
        },
        {
          "indexed": false,
          "internalType": "uint256",
          "name": "policyID",
          "type": "uint256"
        },
        {
          "indexed": false,
          "internalType": "uint256",
          "name": "premiumPriceETH",
          "type": "uint256"
        },
        {
          "indexed": false,
          "internalType": "uint256",
          "name": "nextDueDate",
          "type": "uint256"
        }
      ],
      "name": "PolicySelected",
      "type": "event"
    },
    {
      "inputs": [
        {
          "internalType": "uint256",
          "name": "",
          "type": "uint256"
        }
      ],
      "name": "policies",
      "outputs": [
        {
          "internalType": "uint256",
          "name": "policyID",
          "type": "uint256"
        },
        {
          "internalType": "string",
          "name": "insurancePlan",
          "type": "string"
        },
        {
          "internalType": "string",
          "name": "basePremiumRate",
          "type": "string"
        },
        {
          "internalType": "uint256",
          "name": "deductible",
          "type": "uint256"
        },
        {
          "internalType": "uint256",
          "name": "insuranceCoverage",
          "type": "uint256"
        },
        {
          "internalType": "uint256",
          "name": "thirdPartyLiability",
          "type": "uint256"
        }
      ],
      "stateMutability": "view",
      "type": "function"
    },
    {
      "inputs": [],
      "name": "policyCount",
      "outputs": [
        {
          "internalType": "uint256",
          "name": "",
          "type": "uint256"
        }
      ],
      "stateMutability": "view",
      "type": "function"
    },
    {
      "inputs": [],
      "name": "premiumCollectionAddress",
      "outputs": [
        {
          "internalType": "address",
          "name": "",
          "type": "address"
        }
      ],
      "stateMutability": "view",
      "type": "function"
    },
    {
      "inputs": [],
      "name": "priceFeed",
      "outputs": [
        {
          "internalType": "contract MockV3Aggregator",
          "name": "",
          "type": "address"
        }
      ],
      "stateMutability": "view",
      "type": "function"
    },
    {
      "inputs": [
        {
          "internalType": "address",
          "name": "_premiumCollectionAddress",
          "type": "address"
        }
      ],
      "name": "setPremiumCollectionAddress",
      "outputs": [],
      "stateMutability": "nonpayable",
      "type": "function"
    },
    {
      "inputs": [
        {
          "internalType": "string",
          "name": "_insurancePlan",
          "type": "string"
        },
        {
          "internalType": "string",
          "name": "_basePremiumRate",
          "type": "string"
        },
        {
          "internalType": "uint256",
          "name": "_deductible",
          "type": "uint256"
        },
        {
          "internalType": "uint256",
          "name": "_insuranceCoverage",
          "type": "uint256"
        },
        {
          "internalType": "uint256",
          "name": "_thirdPartyLiability",
          "type": "uint256"
        },
        {
          "internalType": "string[]",
          "name": "_cover",
          "type": "string[]"
        }
      ],
      "name": "createPolicy",
      "outputs": [],
      "stateMutability": "nonpayable",
      "type": "function"
    },
    {
      "inputs": [
        {
          "internalType": "address",
          "name": "user",
          "type": "address"
        },
        {
          "internalType": "uint256",
          "name": "_policyID",
          "type": "uint256"
        },
        {
          "internalType": "uint256",
          "name": "_premiumInUSD",
          "type": "uint256"
        }
      ],
      "name": "selectPolicy",
      "outputs": [],
      "stateMutability": "nonpayable",
      "type": "function"
    },
    {
      "inputs": [
        {
          "internalType": "uint256",
          "name": "amountInUSD",
          "type": "uint256"
        }
      ],
      "name": "getUSDToETH",
      "outputs": [
        {
          "internalType": "uint256",
          "name": "",
          "type": "uint256"
        }
      ],
      "stateMutability": "view",
      "type": "function"
    },
    {
      "inputs": [
        {
          "internalType": "uint256",
          "name": "_policyID",
          "type": "uint256"
        }
      ],
      "name": "viewPolicy",
      "outputs": [
        {
          "internalType": "uint256",
          "name": "policyID",
          "type": "uint256"
        },
        {
          "internalType": "string",
          "name": "insurancePlan",
          "type": "string"
        },
        {
          "internalType": "string",
          "name": "basePremiumRate",
          "type": "string"
        },
        {
          "internalType": "uint256",
          "name": "deductible",
          "type": "uint256"
        },
        {
          "internalType": "uint256",
          "name": "insuranceCoverage",
          "type": "uint256"
        },
        {
          "internalType": "uint256",
          "name": "thirdPartyLiability",
          "type": "uint256"
        },
        {
          "internalType": "string[]",
          "name": "cover",
          "type": "string[]"
        }
      ],
      "stateMutability": "view",
      "type": "function"
    },
    {
      "inputs": [],
      "name": "viewAllPolicies",
      "outputs": [
        {
          "components": [
            {
              "internalType": "uint256",
              "name": "policyID",
              "type": "uint256"
            },
            {
              "internalType": "string",
              "name": "insurancePlan",
              "type": "string"
            },
            {
              "internalType": "string",
              "name": "basePremiumRate",
              "type": "string"
            },
            {
              "internalType": "uint256",
              "name": "deductible",
              "type": "uint256"
            },
            {
              "internalType": "uint256",
              "name": "insuranceCoverage",
              "type": "uint256"
            },
            {
              "internalType": "uint256",
              "name": "thirdPartyLiability",
              "type": "uint256"
            },
            {
              "internalType": "string[]",
              "name": "cover",
              "type": "string[]"
            }
          ],
          "internalType": "struct PolicyManagement.Policy[]",
          "name": "",
          "type": "tuple[]"
        }
      ],
      "stateMutability": "view",
      "type": "function"
    },
    {
      "inputs": [
        {
          "internalType": "address",
          "name": "_user",
          "type": "address"
        }
      ],
      "name": "getUserSelectedPolicies",
      "outputs": [
        {
          "internalType": "uint256[]",
          "name": "policyIDs",
          "type": "uint256[]"
        },
        {
          "internalType": "uint256[]",
          "name": "premiumPricesETH",
          "type": "uint256[]"
        },
        {
          "internalType": "uint256[]",
          "name": "dueDates",
          "type": "uint256[]"
        }
      ],
      "stateMutability": "view",
      "type": "function"
    }
  ],
  "bytecode": "0x60806040523480156200001157600080fd5b5060405162003332380380620033328339818101604052810190620000379190620001ae565b816000806101000a81548173ffffffffffffffffffffffffffffffffffffffff021916908373ffffffffffffffffffffffffffffffffffffffff1602179055506008816040516200008890620000fb565b6200009592919062000260565b604051809103906000f080158015620000b2573d6000803e3d6000fd5b50600160006101000a81548173ffffffffffffffffffffffffffffffffffffffff021916908373ffffffffffffffffffffffffffffffffffffffff16021790555050506200028d565b610ae5806200284d83390190565b600080fd5b600073ffffffffffffffffffffffffffffffffffffffff82169050919050565b60006200013b826200010e565b9050919050565b6200014d816200012e565b81146200015957600080fd5b50565b6000815190506200016d8162000142565b92915050565b6000819050919050565b620001888162000173565b81146200019457600080fd5b50565b600081519050620001a8816200017d565b92915050565b60008060408385031215620001c857620001c762000109565b5b6000620001d8858286016200015c565b9250506020620001eb8582860162000197565b9150509250929050565b6000819050919050565b600060ff82169050919050565b6000819050919050565b600062000237620002316200022b84620001f5565b6200020c565b620001ff565b9050919050565b620002498162000216565b82525050565b6200025a8162000173565b82525050565b60006040820190506200027760008301856200023e565b6200028660208301846200024f565b9392505050565b6125b0806200029d6000396000f3fe608060405234801561001057600080fd5b50600436106100a95760003560e01c806390ca93f41161007157806390ca93f41461013e57806397e6891114610170578063b496b88e146101a6578063c160693d146101d6578063d3e89483146101f4578063de54d42914610229576100a9565b806302606730146100ae5780630403bee7146100cc57806318cf5bf3146100e8578063741bef1a14610104578063751af58f14610122575b600080fd5b6100b6610247565b6040516100c391906112f1565b60405180910390f35b6100e660048036038101906100e19190611582565b61026d565b005b61010260048036038101906100fd919061168f565b610480565b005b61010c6105ee565b6040516101199190611741565b60405180910390f35b61013c6004803603810190610137919061175c565b610614565b005b6101586004803603810190610153919061175c565b610731565b60405161016793929190611847565b60405180910390f35b61018a60048036038101906101859190611893565b6109aa565b60405161019d9796959493929190611a5a565b60405180910390f35b6101c060048036038101906101bb9190611893565b610c43565b6040516101cd9190611ade565b60405180910390f35b6101de610d53565b6040516101eb9190611ceb565b60405180910390f35b61020e60048036038101906102099190611893565b611047565b60405161022096959493929190611d0d565b60405180910390f35b610231611193565b60405161023e9190611ade565b60405180910390f35b600560009054906101000a900473ffffffffffffffffffffffffffffffffffffffff1681565b60008054906101000a900473ffffffffffffffffffffffffffffffffffffffff1673ffffffffffffffffffffffffffffffffffffffff166324d7806c336040518263ffffffff1660e01b81526004016102c691906112f1565b602060405180830381865afa1580156102e3573d6000803e3d6000fd5b505050506040513d601f19601f820116820180604052508101906103079190611db4565b610346576040517f08c379a000000000000000000000000000000000000000000000000000000000815260040161033d90611e2d565b60405180910390fd5b6004600081548092919061035990611e7c565b91905055506040518060e001604052806004548152602001878152602001868152602001858152602001848152602001838152602001828152506002600060045481526020019081526020016000206000820151816000015560208201518160010190816103c791906120c6565b5060408201518160020190816103dd91906120c6565b50606082015181600301556080820151816004015560a0820151816005015560c0820151816006019080519060200190610418929190611199565b509050503373ffffffffffffffffffffffffffffffffffffffff167f85bb9410424bd05b4f4fc44e597715781ac6958b4ebd13548b18e63bb796d9d96004548888888888886040516104709796959493929190611a5a565b60405180910390a2505050505050565b60008211801561049257506004548211155b6104d1576040517f08c379a00000000000000000000000000000000000000000000000000000000081526004016104c8906121e4565b60405180910390fd5b60006104dc82610c43565b905060006301e13380426104f09190612204565b9050600360008673ffffffffffffffffffffffffffffffffffffffff1673ffffffffffffffffffffffffffffffffffffffff168152602001908152602001600020604051806060016040528086815260200184815260200183815250908060018154018082558091505060019003906000526020600020906003020160009091909190915060008201518160000155602082015181600101556040820151816002015550508473ffffffffffffffffffffffffffffffffffffffff167f051b393b24a89d9753c7c57ce74d3a87dd93240b6c96bdac4e32d3e8b9733e758584846040516105df93929190612238565b60405180910390a25050505050565b600160009054906101000a900473ffffffffffffffffffffffffffffffffffffffff1681565b60008054906101000a900473ffffffffffffffffffffffffffffffffffffffff1673ffffffffffffffffffffffffffffffffffffffff166324d7806c336040518263ffffffff1660e01b815260040161066d91906112f1565b602060405180830381865afa15801561068a573d6000803e3d6000fd5b505050506040513d601f19601f820116820180604052508101906106ae9190611db4565b6106ed576040517f08c379a00000000000000000000000000000000000000000000000000000000081526004016106e490611e2d565b60405180910390fd5b80600560006101000a81548173ffffffffffffffffffffffffffffffffffffffff021916908373ffffffffffffffffffffffffffffffffffffffff16021790555050565b60608060606000600360008673ffffffffffffffffffffffffffffffffffffffff1673ffffffffffffffffffffffffffffffffffffffff168152602001908152602001600020805490509050600081116107c0576040517f08c379a00000000000000000000000000000000000000000000000000000000081526004016107b7906122e1565b60405180910390fd5b60008167ffffffffffffffff8111156107dc576107db61133b565b5b60405190808252806020026020018201604052801561080a5781602001602082028036833780820191505090505b50905060008267ffffffffffffffff8111156108295761082861133b565b5b6040519080825280602002602001820160405280156108575781602001602082028036833780820191505090505b50905060008367ffffffffffffffff8111156108765761087561133b565b5b6040519080825280602002602001820160405280156108a45781602001602082028036833780820191505090505b50905060005b84811015610995576000600360008b73ffffffffffffffffffffffffffffffffffffffff1673ffffffffffffffffffffffffffffffffffffffff168152602001908152602001600020828154811061090557610904612301565b5b90600052602060002090600302019050806000015485838151811061092d5761092c612301565b5b602002602001018181525050806001015484838151811061095157610950612301565b5b602002602001018181525050806002015483838151811061097557610974612301565b5b60200260200101818152505050808061098d90611e7c565b9150506108aa565b50828282965096509650505050509193909250565b6000606080600080600060606000881180156109c857506004548811155b610a07576040517f08c379a00000000000000000000000000000000000000000000000000000000081526004016109fe906121e4565b60405180910390fd5b6000600260008a815260200190815260200160002090508060000154816001018260020183600301548460040154856005015486600601858054610a4a90611ef3565b80601f0160208091040260200160405190810160405280929190818152602001828054610a7690611ef3565b8015610ac35780601f10610a9857610100808354040283529160200191610ac3565b820191906000526020600020905b815481529060010190602001808311610aa657829003601f168201915b50505050509550848054610ad690611ef3565b80601f0160208091040260200160405190810160405280929190818152602001828054610b0290611ef3565b8015610b4f5780601f10610b2457610100808354040283529160200191610b4f565b820191906000526020600020905b815481529060010190602001808311610b3257829003601f168201915b5050505050945080805480602002602001604051908101604052809291908181526020016000905b82821015610c23578382906000526020600020018054610b9690611ef3565b80601f0160208091040260200160405190810160405280929190818152602001828054610bc290611ef3565b8015610c0f5780601f10610be457610100808354040283529160200191610c0f565b820191906000526020600020905b815481529060010190602001808311610bf257829003601f168201915b505050505081526020019060010190610b77565b505050509050975097509750975097509750975050919395979092949650565b600080600160009054906101000a900473ffffffffffffffffffffffffffffffffffffffff1673ffffffffffffffffffffffffffffffffffffffff1663feaf968c6040518163ffffffff1660e01b815260040160a060405180830381865afa158015610cb3573d6000803e3d6000fd5b505050506040513d601f19601f82011682018060405250810190610cd791906123bd565b50505091505060008113610d20576040517f08c379a0000000000000000000000000000000000000000000000000000000008152600401610d1790612484565b60405180910390fd5b6000819050600081670de0b6b3a764000086610d3c91906124a4565b610d469190612515565b9050809350505050919050565b6060600060045467ffffffffffffffff811115610d7357610d7261133b565b5b604051908082528060200260200182016040528015610dac57816020015b610d996111f2565b815260200190600190039081610d915790505b5090506000600190505b600454811161103f57600260008281526020019081526020016000206040518060e001604052908160008201548152602001600182018054610df790611ef3565b80601f0160208091040260200160405190810160405280929190818152602001828054610e2390611ef3565b8015610e705780601f10610e4557610100808354040283529160200191610e70565b820191906000526020600020905b815481529060010190602001808311610e5357829003601f168201915b50505050508152602001600282018054610e8990611ef3565b80601f0160208091040260200160405190810160405280929190818152602001828054610eb590611ef3565b8015610f025780601f10610ed757610100808354040283529160200191610f02565b820191906000526020600020905b815481529060010190602001808311610ee557829003601f168201915b5050505050815260200160038201548152602001600482015481526020016005820154815260200160068201805480602002602001604051908101604052809291908181526020016000905b82821015610ffa578382906000526020600020018054610f6d90611ef3565b80601f0160208091040260200160405190810160405280929190818152602001828054610f9990611ef3565b8015610fe65780601f10610fbb57610100808354040283529160200191610fe6565b820191906000526020600020905b815481529060010190602001808311610fc957829003601f168201915b505050505081526020019060010190610f4e565b5050505081525050826001836110109190612546565b8151811061102157611020612301565b5b6020026020010181905250808061103790611e7c565b915050610db6565b508091505090565b600260205280600052604060002060009150905080600001549080600101805461107090611ef3565b80601f016020809104026020016040519081016040528092919081815260200182805461109c90611ef3565b80156110e95780601f106110be576101008083540402835291602001916110e9565b820191906000526020600020905b8154815290600101906020018083116110cc57829003601f168201915b5050505050908060020180546110fe90611ef3565b80601f016020809104026020016040519081016040528092919081815260200182805461112a90611ef3565b80156111775780601f1061114c57610100808354040283529160200191611177565b820191906000526020600020905b81548152906001019060200180831161115a57829003601f168201915b5050505050908060030154908060040154908060050154905086565b60045481565b8280548282559060005260206000209081019282156111e1579160200282015b828111156111e05782518290816111d091906120c6565b50916020019190600101906111b9565b5b5090506111ee919061122f565b5090565b6040518060e00160405280600081526020016060815260200160608152602001600081526020016000815260200160008152602001606081525090565b5b8082111561124f57600081816112469190611253565b50600101611230565b5090565b50805461125f90611ef3565b6000825580601f106112715750611290565b601f01602090049060005260206000209081019061128f9190611293565b5b50565b5b808211156112ac576000816000905550600101611294565b5090565b600073ffffffffffffffffffffffffffffffffffffffff82169050919050565b60006112db826112b0565b9050919050565b6112eb816112d0565b82525050565b600060208201905061130660008301846112e2565b92915050565b6000604051905090565b600080fd5b600080fd5b600080fd5b600080fd5b6000601f19601f8301169050919050565b7f4e487b7100000000000000000000000000000000000000000000000000000000600052604160045260246000fd5b6113738261132a565b810181811067ffffffffffffffff821117156113925761139161133b565b5b80604052505050565b60006113a561130c565b90506113b1828261136a565b919050565b600067ffffffffffffffff8211156113d1576113d061133b565b5b6113da8261132a565b9050602081019050919050565b82818337600083830152505050565b6000611409611404846113b6565b61139b565b90508281526020810184848401111561142557611424611325565b5b6114308482856113e7565b509392505050565b600082601f83011261144d5761144c611320565b5b813561145d8482602086016113f6565b91505092915050565b6000819050919050565b61147981611466565b811461148457600080fd5b50565b60008135905061149681611470565b92915050565b600067ffffffffffffffff8211156114b7576114b661133b565b5b602082029050602081019050919050565b600080fd5b60006114e06114db8461149c565b61139b565b90508083825260208201905060208402830185811115611503576115026114c8565b5b835b8181101561154a57803567ffffffffffffffff81111561152857611527611320565b5b8086016115358982611438565b85526020850194505050602081019050611505565b5050509392505050565b600082601f83011261156957611568611320565b5b81356115798482602086016114cd565b91505092915050565b60008060008060008060c0878903121561159f5761159e611316565b5b600087013567ffffffffffffffff8111156115bd576115bc61131b565b5b6115c989828a01611438565b965050602087013567ffffffffffffffff8111156115ea576115e961131b565b5b6115f689828a01611438565b955050604061160789828a01611487565b945050606061161889828a01611487565b935050608061162989828a01611487565b92505060a087013567ffffffffffffffff81111561164a5761164961131b565b5b61165689828a01611554565b9150509295509295509295565b61166c816112d0565b811461167757600080fd5b50565b60008135905061168981611663565b92915050565b6000806000606084860312156116a8576116a7611316565b5b60006116b68682870161167a565b93505060206116c786828701611487565b92505060406116d886828701611487565b9150509250925092565b6000819050919050565b60006117076117026116fd846112b0565b6116e2565b6112b0565b9050919050565b6000611719826116ec565b9050919050565b600061172b8261170e565b9050919050565b61173b81611720565b82525050565b60006020820190506117566000830184611732565b92915050565b60006020828403121561177257611771611316565b5b60006117808482850161167a565b91505092915050565b600081519050919050565b600082825260208201905092915050565b6000819050602082019050919050565b6117be81611466565b82525050565b60006117d083836117b5565b60208301905092915050565b6000602082019050919050565b60006117f482611789565b6117fe8185611794565b9350611809836117a5565b8060005b8381101561183a57815161182188826117c4565b975061182c836117dc565b92505060018101905061180d565b5085935050505092915050565b6000606082019050818103600083015261186181866117e9565b9050818103602083015261187581856117e9565b9050818103604083015261188981846117e9565b9050949350505050565b6000602082840312156118a9576118a8611316565b5b60006118b784828501611487565b91505092915050565b6118c981611466565b82525050565b600081519050919050565b600082825260208201905092915050565b60005b838110156119095780820151818401526020810190506118ee565b60008484015250505050565b6000611920826118cf565b61192a81856118da565b935061193a8185602086016118eb565b6119438161132a565b840191505092915050565b600081519050919050565b600082825260208201905092915050565b6000819050602082019050919050565b600082825260208201905092915050565b6000611996826118cf565b6119a0818561197a565b93506119b08185602086016118eb565b6119b98161132a565b840191505092915050565b60006119d0838361198b565b905092915050565b6000602082019050919050565b60006119f08261194e565b6119fa8185611959565b935083602082028501611a0c8561196a565b8060005b85811015611a485784840389528151611a2985826119c4565b9450611a34836119d8565b925060208a01995050600181019050611a10565b50829750879550505050505092915050565b600060e082019050611a6f600083018a6118c0565b8181036020830152611a818189611915565b90508181036040830152611a958188611915565b9050611aa460608301876118c0565b611ab160808301866118c0565b611abe60a08301856118c0565b81810360c0830152611ad081846119e5565b905098975050505050505050565b6000602082019050611af360008301846118c0565b92915050565b600081519050919050565b600082825260208201905092915050565b6000819050602082019050919050565b600082825260208201905092915050565b6000611b418261194e565b611b4b8185611b25565b935083602082028501611b5d8561196a565b8060005b85811015611b995784840389528151611b7a85826119c4565b9450611b85836119d8565b925060208a01995050600181019050611b61565b50829750879550505050505092915050565b600060e083016000830151611bc360008601826117b5565b5060208301518482036020860152611bdb828261198b565b91505060408301518482036040860152611bf5828261198b565b9150506060830151611c0a60608601826117b5565b506080830151611c1d60808601826117b5565b5060a0830151611c3060a08601826117b5565b5060c083015184820360c0860152611c488282611b36565b9150508091505092915050565b6000611c618383611bab565b905092915050565b6000602082019050919050565b6000611c8182611af9565b611c8b8185611b04565b935083602082028501611c9d85611b15565b8060005b85811015611cd95784840389528151611cba8582611c55565b9450611cc583611c69565b925060208a01995050600181019050611ca1565b50829750879550505050505092915050565b60006020820190508181036000830152611d058184611c76565b905092915050565b600060c082019050611d2260008301896118c0565b8181036020830152611d348188611915565b90508181036040830152611d488187611915565b9050611d5760608301866118c0565b611d6460808301856118c0565b611d7160a08301846118c0565b979650505050505050565b60008115159050919050565b611d9181611d7c565b8114611d9c57600080fd5b50565b600081519050611dae81611d88565b92915050565b600060208284031215611dca57611dc9611316565b5b6000611dd884828501611d9f565b91505092915050565b7f4163636573732064656e6965643a20596f7520617265206e6f742041646d696e600082015250565b6000611e176020836118da565b9150611e2282611de1565b602082019050919050565b60006020820190508181036000830152611e4681611e0a565b9050919050565b7f4e487b7100000000000000000000000000000000000000000000000000000000600052601160045260246000fd5b6000611e8782611466565b91507fffffffffffffffffffffffffffffffffffffffffffffffffffffffffffffffff8203611eb957611eb8611e4d565b5b600182019050919050565b7f4e487b7100000000000000000000000000000000000000000000000000000000600052602260045260246000fd5b60006002820490506001821680611f0b57607f821691505b602082108103611f1e57611f1d611ec4565b5b50919050565b60008190508160005260206000209050919050565b60006020601f8301049050919050565b600082821b905092915050565b600060088302611f867fffffffffffffffffffffffffffffffffffffffffffffffffffffffffffffffff82611f49565b611f908683611f49565b95508019841693508086168417925050509392505050565b6000611fc3611fbe611fb984611466565b6116e2565b611466565b9050919050565b6000819050919050565b611fdd83611fa8565b611ff1611fe982611fca565b848454611f56565b825550505050565b600090565b612006611ff9565b612011818484611fd4565b505050565b5b818110156120355761202a600082611ffe565b600181019050612017565b5050565b601f82111561207a5761204b81611f24565b61205484611f39565b81016020851015612063578190505b61207761206f85611f39565b830182612016565b50505b505050565b600082821c905092915050565b600061209d6000198460080261207f565b1980831691505092915050565b60006120b6838361208c565b9150826002028217905092915050565b6120cf826118cf565b67ffffffffffffffff8111156120e8576120e761133b565b5b6120f28254611ef3565b6120fd828285612039565b600060209050601f831160018114612130576000841561211e578287015190505b61212885826120aa565b865550612190565b601f19841661213e86611f24565b60005b8281101561216657848901518255600182019150602085019450602081019050612141565b86831015612183578489015161217f601f89168261208c565b8355505b6001600288020188555050505b505050505050565b7f506f6c69637920646f6573206e6f742065786973740000000000000000000000600082015250565b60006121ce6015836118da565b91506121d982612198565b602082019050919050565b600060208201905081810360008301526121fd816121c1565b9050919050565b600061220f82611466565b915061221a83611466565b925082820190508082111561223257612231611e4d565b5b92915050565b600060608201905061224d60008301866118c0565b61225a60208301856118c0565b61226760408301846118c0565b949350505050565b7f5573657220686173206e6f742073656c656374656420616e7920706f6c69636960008201527f6573000000000000000000000000000000000000000000000000000000000000602082015250565b60006122cb6022836118da565b91506122d68261226f565b604082019050919050565b600060208201905081810360008301526122fa816122be565b9050919050565b7f4e487b7100000000000000000000000000000000000000000000000000000000600052603260045260246000fd5b600069ffffffffffffffffffff82169050919050565b61234f81612330565b811461235a57600080fd5b50565b60008151905061236c81612346565b92915050565b6000819050919050565b61238581612372565b811461239057600080fd5b50565b6000815190506123a28161237c565b92915050565b6000815190506123b781611470565b92915050565b600080600080600060a086880312156123d9576123d8611316565b5b60006123e78882890161235d565b95505060206123f888828901612393565b9450506040612409888289016123a8565b935050606061241a888289016123a8565b925050608061242b8882890161235d565b9150509295509295909350565b7f496e76616c696420707269636520666565640000000000000000000000000000600082015250565b600061246e6012836118da565b915061247982612438565b602082019050919050565b6000602082019050818103600083015261249d81612461565b9050919050565b60006124af82611466565b91506124ba83611466565b92508282026124c881611466565b915082820484148315176124df576124de611e4d565b5b5092915050565b7f4e487b7100000000000000000000000000000000000000000000000000000000600052601260045260246000fd5b600061252082611466565b915061252b83611466565b92508261253b5761253a6124e6565b5b828204905092915050565b600061255182611466565b915061255c83611466565b925082820390508181111561257457612573611e4d565b5b9291505056fea2646970667358221220566c9b2594afd62c2c091af45d98dfdf1e4f708a47a4668d03ea72a522f0cf2e64736f6c6343000813003360806040523480156200001157600080fd5b5060405162000ae538038062000ae5833981810160405281019062000037919062000161565b816000806101000a81548160ff021916908360ff16021790555062000062816200006a60201b60201c565b50506200022e565b8060018190555042600281905550600360008154809291906200008d90620001e1565b919050555080600460006003548152602001908152602001600020819055504260056000600354815260200190815260200160002081905550426006600060035481526020019081526020016000208190555050565b600080fd5b600060ff82169050919050565b6200010081620000e8565b81146200010c57600080fd5b50565b6000815190506200012081620000f5565b92915050565b6000819050919050565b6200013b8162000126565b81146200014757600080fd5b50565b6000815190506200015b8162000130565b92915050565b600080604083850312156200017b576200017a620000e3565b5b60006200018b858286016200010f565b92505060206200019e858286016200014a565b9150509250929050565b7f4e487b7100000000000000000000000000000000000000000000000000000000600052601160045260246000fd5b6000819050919050565b6000620001ee82620001d7565b91507fffffffffffffffffffffffffffffffffffffffffffffffffffffffffffffffff8203620002235762000222620001a8565b5b600182019050919050565b6108a7806200023e6000396000f3fe608060405234801561001057600080fd5b50600436106100b45760003560e01c80638205bf6a116100715780638205bf6a1461016b5780639a6fc8f514610189578063a87a20ce146101bd578063b5ab58dc146101d9578063b633620c14610209578063feaf968c14610239576100b4565b8063313ce567146100b95780634aa2011f146100d757806350d25bcd146100f357806354fd4d5014610111578063668a0f021461012f5780637284e4161461014d575b600080fd5b6100c161025b565b6040516100ce91906104d6565b60405180910390f35b6100f160048036038101906100ec91906105a4565b61026c565b005b6100fb6102e1565b604051610108919061061a565b60405180910390f35b6101196102e7565b6040516101269190610644565b60405180910390f35b6101376102ec565b6040516101449190610644565b60405180910390f35b6101556102f2565b60405161016291906106ef565b60405180910390f35b61017361032f565b6040516101809190610644565b60405180910390f35b6101a3600480360381019061019e9190610711565b610335565b6040516101b495949392919061074d565b60405180910390f35b6101d760048036038101906101d291906107a0565b6103b2565b005b6101f360048036038101906101ee91906107cd565b610429565b604051610200919061061a565b60405180910390f35b610223600480360381019061021e91906107cd565b610441565b6040516102309190610644565b60405180910390f35b610241610459565b60405161025295949392919061074d565b60405180910390f35b60008054906101000a900460ff1681565b8369ffffffffffffffffffff16600381905550826001819055508160028190555082600460006003548152602001908152602001600020819055508160056000600354815260200190815260200160002081905550806006600060035481526020019081526020016000208190555050505050565b60015481565b600081565b60035481565b60606040518060400160405280601f81526020017f76302e382f74657374732f4d6f636b563341676772656761746f722e736f6c00815250905090565b60025481565b600080600080600085600460008869ffffffffffffffffffff16815260200190815260200160002054600660008969ffffffffffffffffffff16815260200190815260200160002054600560008a69ffffffffffffffffffff16815260200190815260200160002054899450945094509450945091939590929450565b8060018190555042600281905550600360008154809291906103d390610829565b919050555080600460006003548152602001908152602001600020819055504260056000600354815260200190815260200160002081905550426006600060035481526020019081526020016000208190555050565b60046020528060005260406000206000915090505481565b60056020528060005260406000206000915090505481565b6000806000806000600354600460006003548152602001908152602001600020546006600060035481526020019081526020016000205460056000600354815260200190815260200160002054600354945094509450945094509091929394565b600060ff82169050919050565b6104d0816104ba565b82525050565b60006020820190506104eb60008301846104c7565b92915050565b600080fd5b600069ffffffffffffffffffff82169050919050565b610515816104f6565b811461052057600080fd5b50565b6000813590506105328161050c565b92915050565b6000819050919050565b61054b81610538565b811461055657600080fd5b50565b60008135905061056881610542565b92915050565b6000819050919050565b6105818161056e565b811461058c57600080fd5b50565b60008135905061059e81610578565b92915050565b600080600080608085870312156105be576105bd6104f1565b5b60006105cc87828801610523565b94505060206105dd87828801610559565b93505060406105ee8782880161058f565b92505060606105ff8782880161058f565b91505092959194509250565b61061481610538565b82525050565b600060208201905061062f600083018461060b565b92915050565b61063e8161056e565b82525050565b60006020820190506106596000830184610635565b92915050565b600081519050919050565b600082825260208201905092915050565b60005b8381101561069957808201518184015260208101905061067e565b60008484015250505050565b6000601f19601f8301169050919050565b60006106c18261065f565b6106cb818561066a565b93506106db81856020860161067b565b6106e4816106a5565b840191505092915050565b6000602082019050818103600083015261070981846106b6565b905092915050565b600060208284031215610727576107266104f1565b5b600061073584828501610523565b91505092915050565b610747816104f6565b82525050565b600060a082019050610762600083018861073e565b61076f602083018761060b565b61077c6040830186610635565b6107896060830185610635565b610796608083018461073e565b9695505050505050565b6000602082840312156107b6576107b56104f1565b5b60006107c484828501610559565b91505092915050565b6000602082840312156107e3576107e26104f1565b5b60006107f18482850161058f565b91505092915050565b7f4e487b7100000000000000000000000000000000000000000000000000000000600052601160045260246000fd5b60006108348261056e565b91507fffffffffffffffffffffffffffffffffffffffffffffffffffffffffffffffff8203610866576108656107fa565b5b60018201905091905056fea264697066735822122061d335eef712a4ed3e2a94954636215c556add327f6881aeac54851bbd9c6ab664736f6c63430008130033",
  "immutableReferences": {},
  "source": "// SPDX-License-Identifier: MIT\r\npragma solidity ^0.8.19;\r\n\r\nimport \"./RoleManagement.sol\";\r\nimport \"@chainlink/contracts/src/v0.8/tests/MockV3Aggregator.sol\";\r\n\r\ncontract PolicyManagement {\r\n\r\n    RoleManagement private roleManagement;\r\n    MockV3Aggregator public priceFeed; // Chainlink Mock price feed\r\n\r\n    struct Policy {\r\n        uint256 policyID;          \r\n        string insurancePlan;            \r\n        string basePremiumRate;\r\n        uint256 deductible;\r\n        uint256 insuranceCoverage;\r\n        uint256 thirdPartyLiability;\r\n        string[] cover;         \r\n    }\r\n\r\n     struct UserPolicySelection {\r\n        uint256 policyID;\r\n        uint256 premiumPriceETH; \r\n        uint256 nextDueDate; // Next payment due date (UNIX timestamp)\r\n    }\r\n\r\n    mapping(uint256 => Policy) public policies;\r\n    mapping(address => UserPolicySelection[]) internal userPolicies;\r\n\r\n    uint256 public policyCount;\r\n    address public premiumCollectionAddress;              \r\n\r\n    event PolicyCreated(\r\n        uint256 policyID,\r\n        address indexed admin,\r\n        string insurancePlan,\r\n        string basePremiumRate,\r\n        uint256 deductible,\r\n        uint256 insuranceCoverage,\r\n        uint256 thirdPartyLiability,\r\n        string[] cover\r\n    );\r\n\r\n    event PolicySelected(\r\n        address indexed user, \r\n        uint256 policyID, \r\n        uint256 premiumPriceETH, \r\n        uint256 nextDueDate\r\n    );\r\n\r\n   \r\n\r\n\r\n    // Modifier for admin access control\r\n    modifier onlyAdmin() {\r\n        require(roleManagement.isAdmin(msg.sender), \"Access denied: You are not Admin\");\r\n        _;\r\n    }\r\n\r\n    // Modifier for user access control\r\n    modifier onlyUser() {\r\n        require(roleManagement.isUser(msg.sender), \"Access denied: You are not a Policy Holder\");\r\n        _;\r\n    }\r\n\r\n    constructor(address _roleManagementAddress, int256 _initialPrice) {\r\n        roleManagement = RoleManagement(_roleManagementAddress);\r\n        priceFeed = new MockV3Aggregator(8, _initialPrice); // 8 decimal places for USD/ETH\r\n    }\r\n\r\n     function setPremiumCollectionAddress(address _premiumCollectionAddress) external onlyAdmin {\r\n        premiumCollectionAddress = _premiumCollectionAddress;\r\n    }\r\n\r\n    /**\r\n     * @dev Admin creates a new policy. \r\n     */\r\n    function createPolicy(\r\n        string memory _insurancePlan,\r\n        string memory _basePremiumRate,\r\n        uint256 _deductible,\r\n        uint256 _insuranceCoverage,\r\n        uint256 _thirdPartyLiability,\r\n        string[] memory _cover\r\n    ) external onlyAdmin {\r\n        policyCount++;\r\n        policies[policyCount] = Policy(\r\n            policyCount, \r\n            _insurancePlan, \r\n            _basePremiumRate, \r\n            _deductible, \r\n            _insuranceCoverage, \r\n            _thirdPartyLiability, \r\n            _cover\r\n        );\r\n\r\n        emit PolicyCreated(\r\n            policyCount, \r\n            msg.sender, \r\n            _insurancePlan, \r\n            _basePremiumRate, \r\n            _deductible, \r\n            _insuranceCoverage, \r\n            _thirdPartyLiability, \r\n            _cover\r\n        );\r\n    }\r\n\r\n    function selectPolicy(address user, uint256 _policyID, uint256 _premiumInUSD) external {\r\n        require(_policyID > 0 && _policyID <= policyCount, \"Policy does not exist\");\r\n\r\n        uint256 premiumInETH = getUSDToETH(_premiumInUSD);\r\n        uint256 nextDueDate = block.timestamp + 365 days;\r\n\r\n        userPolicies[user].push(UserPolicySelection(_policyID, premiumInETH, nextDueDate));\r\n\r\n        emit PolicySelected(user, _policyID, premiumInETH, nextDueDate);\r\n    }\r\n\r\n    function getUSDToETH(uint256 amountInUSD) public view returns (uint256) {\r\n    (, int256 price, , ,) = priceFeed.latestRoundData();\r\n    require(price > 0, \"Invalid price feed\");\r\n    uint256 ethPrice = uint256(price); \r\n    uint256 amountInWei = (amountInUSD * 1e18) / ethPrice; \r\n    return amountInWei; // Keep it in Wei for accuracy and payment logic\r\n}\r\n\r\n\r\n    /**\r\n     * @dev View details of a specific policy.\r\n     */\r\n    function viewPolicy(uint256 _policyID) external view returns (\r\n        uint256 policyID,\r\n        string memory insurancePlan,\r\n        string memory basePremiumRate,\r\n        uint256 deductible,\r\n        uint256 insuranceCoverage,\r\n        uint256 thirdPartyLiability,\r\n        string[] memory cover\r\n    ) {\r\n        require(_policyID > 0 && _policyID <= policyCount, \"Policy does not exist\");\r\n\r\n        Policy storage policy = policies[_policyID];\r\n\r\n        return (\r\n            policy.policyID,\r\n            policy.insurancePlan,\r\n            policy.basePremiumRate,\r\n            policy.deductible,\r\n            policy.insuranceCoverage,\r\n            policy.thirdPartyLiability,\r\n            policy.cover\r\n        );\r\n    }\r\n\r\n    /**\r\n     * @dev View all policies that exist in the contract.\r\n     */\r\n    function viewAllPolicies() external view returns (Policy[] memory) {\r\n        Policy[] memory allPolicies = new Policy[](policyCount);\r\n        for (uint256 i = 1; i <= policyCount; i++) {\r\n            allPolicies[i - 1] = policies[i];\r\n        }\r\n        return allPolicies;\r\n    }\r\n\r\n    /**\r\n     * @dev View all selected policies for a specific user along with the premium price in ETH.\r\n     */\r\n     function getUserSelectedPolicies(address _user) external view returns (\r\n        uint256[] memory policyIDs,\r\n        uint256[] memory premiumPricesETH,\r\n        uint256[] memory dueDates\r\n    ) {\r\n        uint256 totalPolicies = userPolicies[_user].length;\r\n        require(totalPolicies > 0, \"User has not selected any policies\");\r\n\r\n        uint256[] memory policyIDArray = new uint256[](totalPolicies);\r\n        uint256[] memory premiumPriceArray = new uint256[](totalPolicies);\r\n        uint256[] memory dueDatesArray = new uint256[](totalPolicies);\r\n\r\n        for (uint256 i = 0; i < totalPolicies; i++) {\r\n            UserPolicySelection storage userSelection = userPolicies[_user][i];\r\n            policyIDArray[i] = userSelection.policyID;\r\n            premiumPriceArray[i] = userSelection.premiumPriceETH;\r\n            dueDatesArray[i] = userSelection.nextDueDate;\r\n        }\r\n\r\n        return (policyIDArray, premiumPriceArray, dueDatesArray);\r\n    }\r\n}\r\n",
  "sourcePath": "C:\\Work\\SIIT\\Blockchain\\DES484_DecentralizedInsurance\\blockchain\\contracts\\PolicyManagement.sol",
  "compiler": {
    "name": "solc",
    "version": "0.8.19+commit.7dd6d404.Emscripten.clang"
  },
  "schemaVersion": "3.4.16",
  "updatedAt": "2024-12-15T07:26:40.206Z",
  "devdoc": {
    "kind": "dev",
    "methods": {
      "createPolicy(string,string,uint256,uint256,uint256,string[])": {
        "details": "Admin creates a new policy. "
      },
      "getUserSelectedPolicies(address)": {
        "details": "View all selected policies for a specific user along with the premium price in ETH."
      },
      "viewAllPolicies()": {
        "details": "View all policies that exist in the contract."
      },
      "viewPolicy(uint256)": {
        "details": "View details of a specific policy."
      }
    },
    "version": 1
  },
  "userdoc": {
    "kind": "user",
    "methods": {},
    "version": 1
  }
}