{
    "contractName": "PremiumCollection",
    "abi": [
        {
            "inputs": [
                {
                    "internalType": "address",
                    "name": "_roleManagementAddress",
                    "type": "address"
                },
                {
                    "internalType": "address",
                    "name": "_policyManagementAddress",
                    "type": "address"
                }
            ],
            "stateMutability": "nonpayable",
            "type": "constructor"
        },
        {
            "anonymous": false,
            "inputs": [
                {
                    "indexed": false,
                    "internalType": "uint256",
                    "name": "newBalance",
                    "type": "uint256"
                }
            ],
            "name": "PoolBalanceUpdated",
            "type": "event"
        },
        {
            "anonymous": false,
            "inputs": [
                {
                    "indexed": true,
                    "internalType": "address",
                    "name": "user",
                    "type": "address"
                },
                {
                    "indexed": false,
                    "internalType": "uint256",
                    "name": "policyID",
                    "type": "uint256"
                },
                {
                    "indexed": false,
                    "internalType": "uint256",
                    "name": "amount",
                    "type": "uint256"
                }
            ],
            "name": "PremiumPaid",
            "type": "event"
        },
        {
            "inputs": [
                {
                    "internalType": "uint256",
                    "name": "_policyID",
                    "type": "uint256"
                },
                {
                    "internalType": "uint256",
                    "name": "_premiumInUSD",
                    "type": "uint256"
                }
            ],
            "name": "selectAndPayPolicy",
            "outputs": [],
            "stateMutability": "payable",
            "type": "function"
        },
        {
            "inputs": [
                {
                    "internalType": "uint256",
                    "name": "_policyID",
                    "type": "uint256"
                }
            ],
            "name": "payPremium",
            "outputs": [],
            "stateMutability": "payable",
            "type": "function"
        },
        {
            "inputs": [],
            "name": "getPoolBalance",
            "outputs": [
                {
                    "internalType": "uint256",
                    "name": "",
                    "type": "uint256"
                }
            ],
            "stateMutability": "view",
            "type": "function"
        },
        {
            "inputs": [
                {
                    "internalType": "uint256",
                    "name": "amount",
                    "type": "uint256"
                }
            ],
            "name": "decreasePoolBalance",
            "outputs": [],
            "stateMutability": "nonpayable",
            "type": "function"
        },
        {
            "inputs": [
                {
                    "internalType": "uint256",
                    "name": "amount",
                    "type": "uint256"
                }
            ],
            "name": "withdrawFunds",
            "outputs": [],
            "stateMutability": "nonpayable",
            "type": "function"
        }
    ],
    "bytecode": "0x60806040523480156200001157600080fd5b50604051620015d3380380620015d383398181016040528101906200003791906200012a565b816000806101000a81548173ffffffffffffffffffffffffffffffffffffffff021916908373ffffffffffffffffffffffffffffffffffffffff16021790555080600160006101000a81548173ffffffffffffffffffffffffffffffffffffffff021916908373ffffffffffffffffffffffffffffffffffffffff160217905550505062000171565b600080fd5b600073ffffffffffffffffffffffffffffffffffffffff82169050919050565b6000620000f282620000c5565b9050919050565b6200010481620000e5565b81146200011057600080fd5b50565b6000815190506200012481620000f9565b92915050565b60008060408385031215620001445762000143620000c0565b5b6000620001548582860162000113565b9250506020620001678582860162000113565b9150509250929050565b61145280620001816000396000f3fe60806040526004361061004a5760003560e01c8063155dd5ee1461004f5780634364b26e14610078578063abd70aa214610094578063c2a44949146100bf578063e69d1431146100e8575b600080fd5b34801561005b57600080fd5b5061007660048036038101906100719190610b7d565b610104565b005b610092600480360381019061008d9190610b7d565b6102be565b005b3480156100a057600080fd5b506100a96106c2565b6040516100b69190610bb9565b60405180910390f35b3480156100cb57600080fd5b506100e660048036038101906100e19190610b7d565b6106cc565b005b61010260048036038101906100fd9190610bd4565b61083f565b005b60008054906101000a900473ffffffffffffffffffffffffffffffffffffffff1673ffffffffffffffffffffffffffffffffffffffff166324d7806c336040518263ffffffff1660e01b815260040161015d9190610c55565b602060405180830381865afa15801561017a573d6000803e3d6000fd5b505050506040513d601f19601f8201168201806040525081019061019e9190610ca8565b6101dd576040517f08c379a00000000000000000000000000000000000000000000000000000000081526004016101d490610d32565b60405180910390fd5b600254811115610222576040517f08c379a000000000000000000000000000000000000000000000000000000000815260040161021990610d9e565b60405180910390fd5b80600260008282546102349190610ded565b925050819055503373ffffffffffffffffffffffffffffffffffffffff166108fc829081150290604051600060405180830381858888f19350505050158015610281573d6000803e3d6000fd5b507f812a312bfbc57c3813f93d3e1a8515055ed46fc860bd4e2ad39b02198d2a3b736002546040516102b39190610bb9565b60405180910390a150565b60008054906101000a900473ffffffffffffffffffffffffffffffffffffffff1673ffffffffffffffffffffffffffffffffffffffff16634209fff1336040518263ffffffff1660e01b81526004016103179190610c55565b602060405180830381865afa158015610334573d6000803e3d6000fd5b505050506040513d601f19601f820116820180604052508101906103589190610ca8565b610397576040517f08c379a000000000000000000000000000000000000000000000000000000000815260040161038e90610e6d565b60405180910390fd5b6000806000600160009054906101000a900473ffffffffffffffffffffffffffffffffffffffff1673ffffffffffffffffffffffffffffffffffffffff166390ca93f4336040518263ffffffff1660e01b81526004016103f79190610c55565b600060405180830381865afa158015610414573d6000803e3d6000fd5b505050506040513d6000823e3d601f19601f8201168201806040525081019061043d9190610ffb565b9250925092506000805b845181101561067a5785858281518110610464576104636110a2565b5b60200260200101510361066757828181518110610484576104836110a2565b5b60200260200101514210156104ce576040517f08c379a00000000000000000000000000000000000000000000000000000000081526004016104c59061111d565b60405180910390fd5b8381815181106104e1576104e06110a2565b5b602002602001015134101561052b576040517f08c379a000000000000000000000000000000000000000000000000000000000815260040161052290611189565b60405180910390fd5b600160009054906101000a900473ffffffffffffffffffffffffffffffffffffffff1673ffffffffffffffffffffffffffffffffffffffff166318cf5bf33388346040518463ffffffff1660e01b815260040161058a939291906111a9565b600060405180830381600087803b1580156105a457600080fd5b505af11580156105b8573d6000803e3d6000fd5b5050505034600260008282546105ce91906111e0565b925050819055503373ffffffffffffffffffffffffffffffffffffffff167f395bd21029ce552d1941c174d800a5599c4b1b28887cc9b9eea83c5409da93ef873460405161061d929190611214565b60405180910390a27f812a312bfbc57c3813f93d3e1a8515055ed46fc860bd4e2ad39b02198d2a3b736002546040516106569190610bb9565b60405180910390a16001915061067a565b80806106729061123d565b915050610447565b50806106bb576040517f08c379a00000000000000000000000000000000000000000000000000000000081526004016106b2906112d1565b60405180910390fd5b5050505050565b6000600254905090565b60008054906101000a900473ffffffffffffffffffffffffffffffffffffffff1673ffffffffffffffffffffffffffffffffffffffff166324d7806c336040518263ffffffff1660e01b81526004016107259190610c55565b602060405180830381865afa158015610742573d6000803e3d6000fd5b505050506040513d601f19601f820116820180604052508101906107669190610ca8565b6107a5576040517f08c379a000000000000000000000000000000000000000000000000000000000815260040161079c90610d32565b60405180910390fd5b8060025410156107ea576040517f08c379a00000000000000000000000000000000000000000000000000000000081526004016107e19061133d565b60405180910390fd5b80600260008282546107fc9190610ded565b925050819055507f812a312bfbc57c3813f93d3e1a8515055ed46fc860bd4e2ad39b02198d2a3b736002546040516108349190610bb9565b60405180910390a150565b60008054906101000a900473ffffffffffffffffffffffffffffffffffffffff1673ffffffffffffffffffffffffffffffffffffffff16634209fff1336040518263ffffffff1660e01b81526004016108989190610c55565b602060405180830381865afa1580156108b5573d6000803e3d6000fd5b505050506040513d601f19601f820116820180604052508101906108d99190610ca8565b610918576040517f08c379a000000000000000000000000000000000000000000000000000000000815260040161090f90610e6d565b60405180910390fd5b6000600160009054906101000a900473ffffffffffffffffffffffffffffffffffffffff1673ffffffffffffffffffffffffffffffffffffffff1663b496b88e836040518263ffffffff1660e01b81526004016109759190610bb9565b602060405180830381865afa158015610992573d6000803e3d6000fd5b505050506040513d601f19601f820116820180604052508101906109b6919061135d565b9050803410156109fb576040517f08c379a00000000000000000000000000000000000000000000000000000000081526004016109f2906113fc565b60405180910390fd5b600160009054906101000a900473ffffffffffffffffffffffffffffffffffffffff1673ffffffffffffffffffffffffffffffffffffffff166318cf5bf33385856040518463ffffffff1660e01b8152600401610a5a939291906111a9565b600060405180830381600087803b158015610a7457600080fd5b505af1158015610a88573d6000803e3d6000fd5b505050503460026000828254610a9e91906111e0565b925050819055503373ffffffffffffffffffffffffffffffffffffffff167f395bd21029ce552d1941c174d800a5599c4b1b28887cc9b9eea83c5409da93ef8434604051610aed929190611214565b60405180910390a27f812a312bfbc57c3813f93d3e1a8515055ed46fc860bd4e2ad39b02198d2a3b73600254604051610b269190610bb9565b60405180910390a1505050565b6000604051905090565b600080fd5b600080fd5b6000819050919050565b610b5a81610b47565b8114610b6557600080fd5b50565b600081359050610b7781610b51565b92915050565b600060208284031215610b9357610b92610b3d565b5b6000610ba184828501610b68565b91505092915050565b610bb381610b47565b82525050565b6000602082019050610bce6000830184610baa565b92915050565b60008060408385031215610beb57610bea610b3d565b5b6000610bf985828601610b68565b9250506020610c0a85828601610b68565b9150509250929050565b600073ffffffffffffffffffffffffffffffffffffffff82169050919050565b6000610c3f82610c14565b9050919050565b610c4f81610c34565b82525050565b6000602082019050610c6a6000830184610c46565b92915050565b60008115159050919050565b610c8581610c70565b8114610c9057600080fd5b50565b600081519050610ca281610c7c565b92915050565b600060208284031215610cbe57610cbd610b3d565b5b6000610ccc84828501610c93565b91505092915050565b600082825260208201905092915050565b7f4163636573732064656e6965643a20596f7520617265206e6f742041646d696e600082015250565b6000610d1c602083610cd5565b9150610d2782610ce6565b602082019050919050565b60006020820190508181036000830152610d4b81610d0f565b9050919050565b7f496e73756666696369656e742062616c616e636520696e2074686520706f6f6c600082015250565b6000610d88602083610cd5565b9150610d9382610d52565b602082019050919050565b60006020820190508181036000830152610db781610d7b565b9050919050565b7f4e487b7100000000000000000000000000000000000000000000000000000000600052601160045260246000fd5b6000610df882610b47565b9150610e0383610b47565b9250828203905081811115610e1b57610e1a610dbe565b5b92915050565b7f4163636573732064656e6965643a20596f7520617265206e6f74205573657200600082015250565b6000610e57601f83610cd5565b9150610e6282610e21565b602082019050919050565b60006020820190508181036000830152610e8681610e4a565b9050919050565b600080fd5b6000601f19601f8301169050919050565b7f4e487b7100000000000000000000000000000000000000000000000000000000600052604160045260246000fd5b610edb82610e92565b810181811067ffffffffffffffff82111715610efa57610ef9610ea3565b5b80604052505050565b6000610f0d610b33565b9050610f198282610ed2565b919050565b600067ffffffffffffffff821115610f3957610f38610ea3565b5b602082029050602081019050919050565b600080fd5b600081519050610f5e81610b51565b92915050565b6000610f77610f7284610f1e565b610f03565b90508083825260208201905060208402830185811115610f9a57610f99610f4a565b5b835b81811015610fc35780610faf8882610f4f565b845260208401935050602081019050610f9c565b5050509392505050565b600082601f830112610fe257610fe1610e8d565b5b8151610ff2848260208601610f64565b91505092915050565b60008060006060848603121561101457611013610b3d565b5b600084015167ffffffffffffffff81111561103257611031610b42565b5b61103e86828701610fcd565b935050602084015167ffffffffffffffff81111561105f5761105e610b42565b5b61106b86828701610fcd565b925050604084015167ffffffffffffffff81111561108c5761108b610b42565b5b61109886828701610fcd565b9150509250925092565b7f4e487b7100000000000000000000000000000000000000000000000000000000600052603260045260246000fd5b7f5061796d656e74206e6f74206475650000000000000000000000000000000000600082015250565b6000611107600f83610cd5565b9150611112826110d1565b602082019050919050565b60006020820190508181036000830152611136816110fa565b9050919050565b7f496e73756666696369656e74204554482073656e740000000000000000000000600082015250565b6000611173601583610cd5565b915061117e8261113d565b602082019050919050565b600060208201905081810360008301526111a281611166565b9050919050565b60006060820190506111be6000830186610c46565b6111cb6020830185610baa565b6111d86040830184610baa565b949350505050565b60006111eb82610b47565b91506111f683610b47565b925082820190508082111561120e5761120d610dbe565b5b92915050565b60006040820190506112296000830185610baa565b6112366020830184610baa565b9392505050565b600061124882610b47565b91507fffffffffffffffffffffffffffffffffffffffffffffffffffffffffffffffff820361127a57611279610dbe565b5b600182019050919050565b7f506f6c696379206e6f7420666f756e6420666f72207573657200000000000000600082015250565b60006112bb601983610cd5565b91506112c682611285565b602082019050919050565b600060208201905081810360008301526112ea816112ae565b9050919050565b7f496e73756666696369656e7420706f6f6c2062616c616e636500000000000000600082015250565b6000611327601983610cd5565b9150611332826112f1565b602082019050919050565b600060208201905081810360008301526113568161131a565b9050919050565b60006020828403121561137357611372610b3d565b5b600061138184828501610f4f565b91505092915050565b7f496e73756666696369656e74204554482073656e7420666f722074686520707260008201527f656d69756d000000000000000000000000000000000000000000000000000000602082015250565b60006113e6602583610cd5565b91506113f18261138a565b604082019050919050565b60006020820190508181036000830152611415816113d9565b905091905056fea2646970667358221220c13d5fdb9d4849e964a869846bdb90d0bb6eeaa6ebae3e82bdb554a177e918f064736f6c63430008130033",
    "immutableReferences": {},
    "source": "// SPDX-License-Identifier: MIT\r\npragma solidity ^0.8.19;\r\n\r\nimport \"./RoleManagement.sol\";\r\nimport \"./PolicyManagement.sol\";\r\n\r\ncontract PremiumCollection {\r\n\r\n    RoleManagement private roleManagement;\r\n    PolicyManagement private policyManagement;\r\n\r\n    uint256 private poolBalance;\r\n\r\n    event PremiumPaid(address indexed user, uint256 policyID, uint256 amount);\r\n    event PoolBalanceUpdated(uint256 newBalance);\r\n\r\n    constructor(address _roleManagementAddress, address _policyManagementAddress) {\r\n        roleManagement = RoleManagement(_roleManagementAddress);\r\n        policyManagement = PolicyManagement(_policyManagementAddress);\r\n    }\r\n\r\n    modifier onlyUser() {\r\n        require(roleManagement.isUser(msg.sender), \"Access denied: You are not User\");\r\n        _;\r\n    }\r\n\r\n     modifier onlyAdmin() {\r\n        require(roleManagement.isAdmin(msg.sender), \"Access denied: You are not Admin\");\r\n        _;\r\n    }\r\n\r\n    function selectAndPayPolicy(uint256 _policyID, uint256 _premiumInUSD) external payable onlyUser {\r\n        uint256 premiumInWei = policyManagement.getUSDToETH(_premiumInUSD);\r\n        require(msg.value >= premiumInWei, \"Insufficient ETH sent for the premium\");\r\n\r\n        // Call the PolicyManagement to store the user policy\r\n        policyManagement.selectPolicy(msg.sender, _policyID, _premiumInUSD);\r\n        \r\n        poolBalance += msg.value;\r\n\r\n        emit PremiumPaid(msg.sender, _policyID, msg.value);\r\n        emit PoolBalanceUpdated(poolBalance);\r\n    }\r\n\r\n        function payPremium(uint256 _policyID) public payable onlyUser {\r\n        (uint256[] memory policyIDs, uint256[] memory premiums, uint256[] memory dueDates) = \r\n            policyManagement.getUserSelectedPolicies(msg.sender);\r\n\r\n        bool policyFound = false;\r\n\r\n        for (uint256 i = 0; i < policyIDs.length; i++) {\r\n            if (policyIDs[i] == _policyID) {\r\n                require(block.timestamp >= dueDates[i], \"Payment not due\");\r\n                require(msg.value >= premiums[i], \"Insufficient ETH sent\");\r\n\r\n                policyManagement.selectPolicy(msg.sender, _policyID, msg.value);\r\n\r\n                poolBalance += msg.value;\r\n                emit PremiumPaid(msg.sender, _policyID, msg.value);\r\n                emit PoolBalanceUpdated(poolBalance);\r\n\r\n                policyFound = true;\r\n                break;\r\n            }\r\n        }\r\n\r\n        require(policyFound, \"Policy not found for user\");\r\n    }\r\n\r\n    function getPoolBalance() public view returns (uint256) {\r\n        return poolBalance;\r\n    }\r\n\r\n    function decreasePoolBalance(uint256 amount) public onlyAdmin {\r\n        require(poolBalance >= amount, \"Insufficient pool balance\");\r\n        poolBalance -= amount;\r\n        emit PoolBalanceUpdated(poolBalance);\r\n    }\r\n\r\n    function withdrawFunds(uint256 amount) external onlyAdmin {\r\n        require(amount <= poolBalance, \"Insufficient balance in the pool\");\r\n        poolBalance -= amount;\r\n        payable(msg.sender).transfer(amount);\r\n        emit PoolBalanceUpdated(poolBalance);\r\n    }\r\n}\r\n",
    "sourcePath": "C:\\Work\\SIIT\\Blockchain\\DES484_carinsurance\\blockchain\\contracts\\PremiumCollection.sol",
    "compiler": {
        "name": "solc",
        "version": "0.8.19+commit.7dd6d404.Emscripten.clang"
    },
    "schemaVersion": "3.4.16",
    "updatedAt": "2024-12-14T19:14:52.040Z",
    "devdoc": {
        "kind": "dev",
        "methods": {},
        "version": 1
    },
    "userdoc": {
        "kind": "user",
        "methods": {},
        "version": 1
    }
}